{
  "_format": "hh-sol-artifact-1",
  "contractName": "MarketplaceERC20",
  "sourceName": "contracts/MarketplaceERC20.sol",
  "abi": [
    {
      "inputs": [
        {
          "internalType": "uint256",
          "name": "_listingId",
          "type": "uint256"
        },
        {
          "internalType": "address",
          "name": "_tokenContract",
          "type": "address"
        }
      ],
      "name": "acceptOffer",
      "outputs": [],
      "stateMutability": "payable",
      "type": "function"
    },
    {
      "inputs": [
        {
          "internalType": "address",
          "name": "_tokenContract",
          "type": "address"
        },
        {
          "internalType": "uint256",
          "name": "_amount",
          "type": "uint256"
        },
        {
          "internalType": "uint256",
          "name": "_price",
          "type": "uint256"
        }
      ],
      "name": "addOffer",
      "outputs": [
        {
          "internalType": "uint256",
          "name": "",
          "type": "uint256"
        }
      ],
      "stateMutability": "nonpayable",
      "type": "function"
    },
    {
      "inputs": [
        {
          "internalType": "uint256",
          "name": "_listingId",
          "type": "uint256"
        },
        {
          "internalType": "address",
          "name": "_tokenContract",
          "type": "address"
        }
      ],
      "name": "cancelOffer",
      "outputs": [],
      "stateMutability": "nonpayable",
      "type": "function"
    },
    {
      "inputs": [
        {
          "internalType": "uint256",
          "name": "",
          "type": "uint256"
        },
        {
          "internalType": "address",
          "name": "",
          "type": "address"
        }
      ],
      "name": "toSell",
      "outputs": [
        {
          "internalType": "address",
          "name": "owner",
          "type": "address"
        },
        {
          "internalType": "uint256",
          "name": "tokenAmount",
          "type": "uint256"
        },
        {
          "internalType": "uint256",
          "name": "price",
          "type": "uint256"
        }
      ],
      "stateMutability": "view",
      "type": "function"
    }
  ],
  "bytecode": "0x60806040526000805534801561001457600080fd5b506109b8806100246000396000f3fe60806040526004361061003f5760003560e01c80631a2678331461004457806356abf8d014610083578063918d407d146100c0578063c0fc80a2146100dc575b600080fd5b34801561005057600080fd5b5061006b6004803603810190610066919061073a565b610105565b60405161007a939291906107f5565b60405180910390f35b34801561008f57600080fd5b506100aa60048036038101906100a59190610699565b61015c565b6040516100b7919061082c565b60405180910390f35b6100da60048036038101906100d5919061073a565b6102fa565b005b3480156100e857600080fd5b5061010360048036038101906100fe919061073a565b61050c565b005b6001602052816000526040600020602052806000526040600020600091509150508060000160009054906101000a900473ffffffffffffffffffffffffffffffffffffffff16908060010154908060020154905083565b600080849050838173ffffffffffffffffffffffffffffffffffffffff166370a08231336040518263ffffffff1660e01b815260040161019c91906107a3565b60206040518083038186803b1580156101b457600080fd5b505afa1580156101c8573d6000803e3d6000fd5b505050506040513d601f19601f820116820180604052508101906101ec9190610711565b10156101f757600080fd5b60008060008154610207906108c5565b919050819055905060405180606001604052803373ffffffffffffffffffffffffffffffffffffffff168152602001868152602001858152506001600083815260200190815260200160002060008873ffffffffffffffffffffffffffffffffffffffff1673ffffffffffffffffffffffffffffffffffffffff16815260200190815260200160002060008201518160000160006101000a81548173ffffffffffffffffffffffffffffffffffffffff021916908373ffffffffffffffffffffffffffffffffffffffff160217905550602082015181600101556040820151816002015590505080925050509392505050565b60008190506001600084815260200190815260200160002060008373ffffffffffffffffffffffffffffffffffffffff1673ffffffffffffffffffffffffffffffffffffffff16815260200190815260200160002060020154341461035e57600080fd5b60006001600085815260200190815260200160002060008473ffffffffffffffffffffffffffffffffffffffff1673ffffffffffffffffffffffffffffffffffffffff16815260200190815260200160002060000160009054906101000a900473ffffffffffffffffffffffffffffffffffffffff16905060006001600086815260200190815260200160002060008573ffffffffffffffffffffffffffffffffffffffff1673ffffffffffffffffffffffffffffffffffffffff1681526020019081526020016000206001015490508273ffffffffffffffffffffffffffffffffffffffff166323b872dd8333846040518463ffffffff1660e01b815260040161046b939291906107be565b602060405180830381600087803b15801561048557600080fd5b505af1158015610499573d6000803e3d6000fd5b505050506040513d601f19601f820116820180604052508101906104bd91906106e8565b508173ffffffffffffffffffffffffffffffffffffffff166108fc349081150290604051600060405180830381858888f19350505050158015610504573d6000803e3d6000fd5b505050505050565b3373ffffffffffffffffffffffffffffffffffffffff166001600084815260200190815260200160002060008373ffffffffffffffffffffffffffffffffffffffff1673ffffffffffffffffffffffffffffffffffffffff16815260200190815260200160002060000160009054906101000a900473ffffffffffffffffffffffffffffffffffffffff1673ffffffffffffffffffffffffffffffffffffffff16146105b757600080fd5b6001600083815260200190815260200160002060008273ffffffffffffffffffffffffffffffffffffffff1673ffffffffffffffffffffffffffffffffffffffff168152602001908152602001600020600080820160006101000a81549073ffffffffffffffffffffffffffffffffffffffff02191690556001820160009055600282016000905550505050565b6000813590506106548161093d565b92915050565b60008151905061066981610954565b92915050565b60008135905061067e8161096b565b92915050565b6000815190506106938161096b565b92915050565b6000806000606084860312156106ae57600080fd5b60006106bc86828701610645565b93505060206106cd8682870161066f565b92505060406106de8682870161066f565b9150509250925092565b6000602082840312156106fa57600080fd5b60006107088482850161065a565b91505092915050565b60006020828403121561072357600080fd5b600061073184828501610684565b91505092915050565b6000806040838503121561074d57600080fd5b600061075b8582860161066f565b925050602061076c85828601610645565b9150509250929050565b61077f8161088f565b82525050565b61078e81610847565b82525050565b61079d81610885565b82525050565b60006020820190506107b86000830184610785565b92915050565b60006060820190506107d36000830186610776565b6107e06020830185610785565b6107ed6040830184610794565b949350505050565b600060608201905061080a6000830186610785565b6108176020830185610794565b6108246040830184610794565b949350505050565b60006020820190506108416000830184610794565b92915050565b600061085282610865565b9050919050565b60008115159050919050565b600073ffffffffffffffffffffffffffffffffffffffff82169050919050565b6000819050919050565b600061089a826108a1565b9050919050565b60006108ac826108b3565b9050919050565b60006108be82610865565b9050919050565b60006108d082610885565b91507fffffffffffffffffffffffffffffffffffffffffffffffffffffffffffffffff8214156109035761090261090e565b5b600182019050919050565b7f4e487b7100000000000000000000000000000000000000000000000000000000600052601160045260246000fd5b61094681610847565b811461095157600080fd5b50565b61095d81610859565b811461096857600080fd5b50565b61097481610885565b811461097f57600080fd5b5056fea2646970667358221220763fa626d648090ddcd3ba97d346a46e543a066ae8c5fdbb121e6b5ae9bd213c64736f6c63430008020033",
  "linkReferences": {},
  "deployedLinkReferences": {}
}