{
  "_format": "hh-sol-artifact-1",
  "contractName": "Marketplace721",
  "sourceName": "contracts/Marketplace.sol",
  "abi": [
    {
      "anonymous": false,
      "inputs": [
        {
          "indexed": true,
          "internalType": "address",
          "name": "_contractAddress",
          "type": "address"
        },
        {
          "indexed": true,
          "internalType": "uint256",
          "name": "_tokenId",
          "type": "uint256"
        },
        {
          "indexed": false,
          "internalType": "uint256",
          "name": "_priceAsked",
          "type": "uint256"
        }
      ],
      "name": "OnSale",
      "type": "event"
    },
    {
      "inputs": [
        {
          "internalType": "address",
          "name": "_tokenAddress",
          "type": "address"
        },
        {
          "internalType": "uint256",
          "name": "_tokenId",
          "type": "uint256"
        }
      ],
      "name": "buyFromMarket",
      "outputs": [],
      "stateMutability": "payable",
      "type": "function"
    },
    {
      "inputs": [
        {
          "internalType": "address",
          "name": "",
          "type": "address"
        },
        {
          "internalType": "uint256",
          "name": "",
          "type": "uint256"
        }
      ],
      "name": "price",
      "outputs": [
        {
          "internalType": "uint256",
          "name": "",
          "type": "uint256"
        }
      ],
      "stateMutability": "view",
      "type": "function"
    },
    {
      "inputs": [
        {
          "internalType": "address",
          "name": "_tokenAddress",
          "type": "address"
        },
        {
          "internalType": "uint256",
          "name": "_tokenId",
          "type": "uint256"
        },
        {
          "internalType": "uint256",
          "name": "_priceAsked",
          "type": "uint256"
        }
      ],
      "name": "toMarket",
      "outputs": [],
      "stateMutability": "nonpayable",
      "type": "function"
    }
  ],
  "bytecode": "0x608060405234801561001057600080fd5b50610695806100206000396000f3fe6080604052600436106100345760003560e01c806367f18e9214610039578063ad9b802414610062578063c1d6d2cc1461009f575b600080fd5b34801561004557600080fd5b50610060600480360381019061005b91906104f1565b6100bb565b005b34801561006e57600080fd5b50610089600480360381019061008491906104b5565b61022a565b60405161009691906105a4565b60405180910390f35b6100b960048036038101906100b491906104b5565b61024f565b005b60008390508073ffffffffffffffffffffffffffffffffffffffff16636352211e846040518263ffffffff1660e01b81526004016100f991906105a4565b60206040518083038186803b15801561011157600080fd5b505afa158015610125573d6000803e3d6000fd5b505050506040513d601f19601f82011682018060405250810190610149919061048c565b73ffffffffffffffffffffffffffffffffffffffff163373ffffffffffffffffffffffffffffffffffffffff161461018057600080fd5b81600160008673ffffffffffffffffffffffffffffffffffffffff1673ffffffffffffffffffffffffffffffffffffffff168152602001908152602001600020600085815260200190815260200160002081905550828473ffffffffffffffffffffffffffffffffffffffff167f699afe974fce60a056af44e546f299e7b89c18582cdd879d47aaa81145fcadf88460405161021c91906105a4565b60405180910390a350505050565b6001602052816000526040600020602052806000526040600020600091509150505481565b600160008373ffffffffffffffffffffffffffffffffffffffff1673ffffffffffffffffffffffffffffffffffffffff16815260200190815260200160002060008281526020019081526020016000205434146102ab57600080fd5b600082905060008173ffffffffffffffffffffffffffffffffffffffff16636352211e846040518263ffffffff1660e01b81526004016102eb91906105a4565b60206040518083038186803b15801561030357600080fd5b505afa158015610317573d6000803e3d6000fd5b505050506040513d601f19601f8201168201806040525081019061033b919061048c565b90508173ffffffffffffffffffffffffffffffffffffffff166323b872dd8233866040518463ffffffff1660e01b815260040161037a9392919061056d565b600060405180830381600087803b15801561039457600080fd5b505af11580156103a8573d6000803e3d6000fd5b505050508073ffffffffffffffffffffffffffffffffffffffff166108fc349081150290604051600060405180830381858888f193505050501580156103f2573d6000803e3d6000fd5b50600160008573ffffffffffffffffffffffffffffffffffffffff1673ffffffffffffffffffffffffffffffffffffffff16815260200190815260200160002060008481526020019081526020016000206000905550505050565b60008135905061045c81610631565b92915050565b60008151905061047181610631565b92915050565b60008135905061048681610648565b92915050565b60006020828403121561049e57600080fd5b60006104ac84828501610462565b91505092915050565b600080604083850312156104c857600080fd5b60006104d68582860161044d565b92505060206104e785828601610477565b9150509250929050565b60008060006060848603121561050657600080fd5b60006105148682870161044d565b935050602061052586828701610477565b925050604061053686828701610477565b9150509250925092565b610549816105fb565b82525050565b610558816105bf565b82525050565b610567816105f1565b82525050565b60006060820190506105826000830186610540565b61058f602083018561054f565b61059c604083018461055e565b949350505050565b60006020820190506105b9600083018461055e565b92915050565b60006105ca826105d1565b9050919050565b600073ffffffffffffffffffffffffffffffffffffffff82169050919050565b6000819050919050565b60006106068261060d565b9050919050565b60006106188261061f565b9050919050565b600061062a826105d1565b9050919050565b61063a816105bf565b811461064557600080fd5b50565b610651816105f1565b811461065c57600080fd5b5056fea264697066735822122082065ddc3a4439605dfc5f1800866ca95636a0b05c825591a7d49f0cae13cadf64736f6c63430008020033",
  "linkReferences": {},
  "deployedLinkReferences": {}
}