{
  "_format": "hh-sol-artifact-1",
  "contractName": "Marketplace1155",
  "sourceName": "contracts/Marketplace1155.sol",
  "abi": [
    {
      "anonymous": false,
      "inputs": [
        {
          "indexed": true,
          "internalType": "address",
          "name": "tokenContract",
          "type": "address"
        },
        {
          "indexed": true,
          "internalType": "uint256",
          "name": "tokenId",
          "type": "uint256"
        },
        {
          "indexed": true,
          "internalType": "address",
          "name": "newOwner",
          "type": "address"
        }
      ],
      "name": "Accepted",
      "type": "event"
    },
    {
      "anonymous": false,
      "inputs": [
        {
          "indexed": true,
          "internalType": "address",
          "name": "tokenContract",
          "type": "address"
        },
        {
          "indexed": true,
          "internalType": "uint256",
          "name": "tokenId",
          "type": "uint256"
        },
        {
          "indexed": true,
          "internalType": "address",
          "name": "owner",
          "type": "address"
        }
      ],
      "name": "Cancelled",
      "type": "event"
    },
    {
      "anonymous": false,
      "inputs": [
        {
          "indexed": true,
          "internalType": "address",
          "name": "tokenContract",
          "type": "address"
        },
        {
          "indexed": true,
          "internalType": "uint256",
          "name": "tokenId",
          "type": "uint256"
        },
        {
          "indexed": true,
          "internalType": "address",
          "name": "owner",
          "type": "address"
        },
        {
          "indexed": false,
          "internalType": "uint256",
          "name": "amount",
          "type": "uint256"
        },
        {
          "indexed": false,
          "internalType": "uint256",
          "name": "price",
          "type": "uint256"
        }
      ],
      "name": "OnSale",
      "type": "event"
    },
    {
      "inputs": [
        {
          "internalType": "address",
          "name": "_tokenContract",
          "type": "address"
        },
        {
          "internalType": "uint256[]",
          "name": "_tokenIds",
          "type": "uint256[]"
        },
        {
          "internalType": "bytes",
          "name": "_data",
          "type": "bytes"
        }
      ],
      "name": "acceptBatchOffer",
      "outputs": [],
      "stateMutability": "payable",
      "type": "function"
    },
    {
      "inputs": [
        {
          "internalType": "address",
          "name": "_tokenContract",
          "type": "address"
        },
        {
          "internalType": "uint256",
          "name": "_tokenId",
          "type": "uint256"
        },
        {
          "internalType": "bytes",
          "name": "_data",
          "type": "bytes"
        }
      ],
      "name": "acceptOffer",
      "outputs": [],
      "stateMutability": "payable",
      "type": "function"
    },
    {
      "inputs": [
        {
          "internalType": "address",
          "name": "_tokenContract",
          "type": "address"
        },
        {
          "internalType": "uint256[]",
          "name": "_tokenIds",
          "type": "uint256[]"
        },
        {
          "internalType": "uint256[]",
          "name": "_amounts",
          "type": "uint256[]"
        },
        {
          "internalType": "uint256[]",
          "name": "_prices",
          "type": "uint256[]"
        }
      ],
      "name": "addGroupOffer",
      "outputs": [],
      "stateMutability": "nonpayable",
      "type": "function"
    },
    {
      "inputs": [
        {
          "internalType": "address",
          "name": "_tokenContract",
          "type": "address"
        },
        {
          "internalType": "uint256",
          "name": "_tokenId",
          "type": "uint256"
        },
        {
          "internalType": "uint256",
          "name": "_amount",
          "type": "uint256"
        },
        {
          "internalType": "uint256",
          "name": "_price",
          "type": "uint256"
        }
      ],
      "name": "addOffer",
      "outputs": [],
      "stateMutability": "nonpayable",
      "type": "function"
    },
    {
      "inputs": [
        {
          "internalType": "address",
          "name": "_tokenContract",
          "type": "address"
        },
        {
          "internalType": "uint256[]",
          "name": "_tokenIds",
          "type": "uint256[]"
        }
      ],
      "name": "cancelBatchOffer",
      "outputs": [],
      "stateMutability": "nonpayable",
      "type": "function"
    },
    {
      "inputs": [
        {
          "internalType": "address",
          "name": "_tokenContract",
          "type": "address"
        },
        {
          "internalType": "uint256",
          "name": "_tokenId",
          "type": "uint256"
        }
      ],
      "name": "cancelOffer",
      "outputs": [],
      "stateMutability": "nonpayable",
      "type": "function"
    },
    {
      "inputs": [
        {
          "internalType": "uint256",
          "name": "",
          "type": "uint256"
        },
        {
          "internalType": "address",
          "name": "",
          "type": "address"
        }
      ],
      "name": "toSell",
      "outputs": [
        {
          "internalType": "address",
          "name": "owner",
          "type": "address"
        },
        {
          "internalType": "uint256",
          "name": "amount",
          "type": "uint256"
        },
        {
          "internalType": "uint256",
          "name": "price",
          "type": "uint256"
        }
      ],
      "stateMutability": "view",
      "type": "function"
    }
  ],
  "bytecode": "0x608060405234801561001057600080fd5b50611d5f806100206000396000f3fe6080604052600436106100705760003560e01c806391e800031161004e57806391e80003146101065780639cb010a914610122578063abdad9af1461014b578063f4e1d26f1461016757610070565b8063058a56ac146100755780631a2678331461009e5780638f709351146100dd575b600080fd5b34801561008157600080fd5b5061009c60048036038101906100979190611581565b610190565b005b3480156100aa57600080fd5b506100c560048036038101906100c091906116b0565b610322565b6040516100d493929190611908565b60405180910390f35b3480156100e957600080fd5b5061010460048036038101906100ff9190611624565b610379565b005b610120600480360381019061011b91906115bd565b610561565b005b34801561012e57600080fd5b5061014960048036038101906101449190611403565b6107af565b005b61016560048036038101906101609190611502565b610a21565b005b34801561017357600080fd5b5061018e60048036038101906101899190611457565b610e68565b005b3373ffffffffffffffffffffffffffffffffffffffff1660008083815260200190815260200160002060008473ffffffffffffffffffffffffffffffffffffffff1673ffffffffffffffffffffffffffffffffffffffff16815260200190815260200160002060000160009054906101000a900473ffffffffffffffffffffffffffffffffffffffff1673ffffffffffffffffffffffffffffffffffffffff161461023a57600080fd5b3373ffffffffffffffffffffffffffffffffffffffff16818373ffffffffffffffffffffffffffffffffffffffff167f0c8fde439b4e72d175ffeb3c5f3c15c6f70f473413f4c2d68f8971c0d629b60d60405160405180910390a460008082815260200190815260200160002060008373ffffffffffffffffffffffffffffffffffffffff1673ffffffffffffffffffffffffffffffffffffffff168152602001908152602001600020600080820160006101000a81549073ffffffffffffffffffffffffffffffffffffffff02191690556001820160009055600282016000905550505050565b6000602052816000526040600020602052806000526040600020600091509150508060000160009054906101000a900473ffffffffffffffffffffffffffffffffffffffff16908060010154908060020154905083565b6000849050828173ffffffffffffffffffffffffffffffffffffffff1662fdd58e33876040518363ffffffff1660e01b81526004016103b99291906118df565b60206040518083038186803b1580156103d157600080fd5b505afa1580156103e5573d6000803e3d6000fd5b505050506040513d601f19601f820116820180604052508101906104099190611687565b101561041457600080fd5b60405180606001604052803373ffffffffffffffffffffffffffffffffffffffff1681526020018481526020018381525060008086815260200190815260200160002060008773ffffffffffffffffffffffffffffffffffffffff1673ffffffffffffffffffffffffffffffffffffffff16815260200190815260200160002060008201518160000160006101000a81548173ffffffffffffffffffffffffffffffffffffffff021916908373ffffffffffffffffffffffffffffffffffffffff16021790555060208201518160010155604082015181600201559050503373ffffffffffffffffffffffffffffffffffffffff16848673ffffffffffffffffffffffffffffffffffffffff167f6a20fe4f4f0e9d8f0f40f57d4cb1a9624c1f0d6d2fd864f9a0537d0a087fad16868660405161055292919061197f565b60405180910390a45050505050565b600083905060008084815260200190815260200160002060008573ffffffffffffffffffffffffffffffffffffffff1673ffffffffffffffffffffffffffffffffffffffff1681526020019081526020016000206002015434146105c457600080fd5b600080600085815260200190815260200160002060008673ffffffffffffffffffffffffffffffffffffffff1673ffffffffffffffffffffffffffffffffffffffff16815260200190815260200160002060000160009054906101000a900473ffffffffffffffffffffffffffffffffffffffff169050600080600086815260200190815260200160002060008773ffffffffffffffffffffffffffffffffffffffff1673ffffffffffffffffffffffffffffffffffffffff1681526020019081526020016000206001015490508273ffffffffffffffffffffffffffffffffffffffff1663f242432a83338885896040518663ffffffff1660e01b81526004016106d3959493929190611885565b600060405180830381600087803b1580156106ed57600080fd5b505af1158015610701573d6000803e3d6000fd5b505050508173ffffffffffffffffffffffffffffffffffffffff166108fc349081150290604051600060405180830381858888f1935050505015801561074b573d6000803e3d6000fd5b503373ffffffffffffffffffffffffffffffffffffffff16858773ffffffffffffffffffffffffffffffffffffffff167f1a130fe5b06beb671153078996db74e9234adb5f20ed318c51eb7a179c9b6f2c60405160405180910390a4505050505050565b60005b8151811015610a1c573373ffffffffffffffffffffffffffffffffffffffff1660008084848151811061080e577f4e487b7100000000000000000000000000000000000000000000000000000000600052603260045260246000fd5b6020026020010151815260200190815260200160002060008573ffffffffffffffffffffffffffffffffffffffff1673ffffffffffffffffffffffffffffffffffffffff16815260200190815260200160002060000160009054906101000a900473ffffffffffffffffffffffffffffffffffffffff1673ffffffffffffffffffffffffffffffffffffffff16146108a557600080fd5b3373ffffffffffffffffffffffffffffffffffffffff168282815181106108f5577f4e487b7100000000000000000000000000000000000000000000000000000000600052603260045260246000fd5b60200260200101518473ffffffffffffffffffffffffffffffffffffffff167f0c8fde439b4e72d175ffeb3c5f3c15c6f70f473413f4c2d68f8971c0d629b60d60405160405180910390a460008083838151811061097c577f4e487b7100000000000000000000000000000000000000000000000000000000600052603260045260246000fd5b6020026020010151815260200190815260200160002060008473ffffffffffffffffffffffffffffffffffffffff1673ffffffffffffffffffffffffffffffffffffffff168152602001908152602001600020600080820160006101000a81549073ffffffffffffffffffffffffffffffffffffffff02191690556001820160009055600282016000905550508080610a1490611bcb565b9150506107b2565b505050565b60008390506000835190506000808267ffffffffffffffff811115610a6f577f4e487b7100000000000000000000000000000000000000000000000000000000600052604160045260246000fd5b604051908082528060200260200182016040528015610a9d5781602001602082028036833780820191505090505b50905060005b83811015610c3657600080888381518110610ae7577f4e487b7100000000000000000000000000000000000000000000000000000000600052603260045260246000fd5b6020026020010151815260200190815260200160002060008973ffffffffffffffffffffffffffffffffffffffff1673ffffffffffffffffffffffffffffffffffffffff1681526020019081526020016000206002015483610b499190611a90565b9250600080888381518110610b87577f4e487b7100000000000000000000000000000000000000000000000000000000600052603260045260246000fd5b6020026020010151815260200190815260200160002060008973ffffffffffffffffffffffffffffffffffffffff1673ffffffffffffffffffffffffffffffffffffffff16815260200190815260200160002060010154828281518110610c17577f4e487b7100000000000000000000000000000000000000000000000000000000600052603260045260246000fd5b6020026020010181815250508080610c2e90611bcb565b915050610aa3565b50600080600088600081518110610c76577f4e487b7100000000000000000000000000000000000000000000000000000000600052603260045260246000fd5b6020026020010151815260200190815260200160002060008973ffffffffffffffffffffffffffffffffffffffff1673ffffffffffffffffffffffffffffffffffffffff16815260200190815260200160002060000160009054906101000a900473ffffffffffffffffffffffffffffffffffffffff169050823414610d31576040517f08c379a0000000000000000000000000000000000000000000000000000000008152600401610d289061193f565b60405180910390fd5b60005b84811015610dea573373ffffffffffffffffffffffffffffffffffffffff16888281518110610d8c577f4e487b7100000000000000000000000000000000000000000000000000000000600052603260045260246000fd5b60200260200101518a73ffffffffffffffffffffffffffffffffffffffff167f1a130fe5b06beb671153078996db74e9234adb5f20ed318c51eb7a179c9b6f2c60405160405180910390a48080610de290611bcb565b915050610d34565b508473ffffffffffffffffffffffffffffffffffffffff16632eb2c2d682338a868b6040518663ffffffff1660e01b8152600401610e2c95949392919061181d565b600060405180830381600087803b158015610e4657600080fd5b505af1158015610e5a573d6000803e3d6000fd5b505050505050505050505050565b600084905060008451905080845114610e8057600080fd5b80835114610e8d57600080fd5b60005b818110156112bd57848181518110610ed1577f4e487b7100000000000000000000000000000000000000000000000000000000600052603260045260246000fd5b60200260200101518373ffffffffffffffffffffffffffffffffffffffff1662fdd58e33898581518110610f2e577f4e487b7100000000000000000000000000000000000000000000000000000000600052603260045260246000fd5b60200260200101516040518363ffffffff1660e01b8152600401610f539291906118df565b60206040518083038186803b158015610f6b57600080fd5b505afa158015610f7f573d6000803e3d6000fd5b505050506040513d601f19601f82011682018060405250810190610fa39190611687565b1015610fe4576040517f08c379a0000000000000000000000000000000000000000000000000000000008152600401610fdb9061195f565b60405180910390fd5b60405180606001604052803373ffffffffffffffffffffffffffffffffffffffff168152602001868381518110611044577f4e487b7100000000000000000000000000000000000000000000000000000000600052603260045260246000fd5b6020026020010151815260200185838151811061108a577f4e487b7100000000000000000000000000000000000000000000000000000000600052603260045260246000fd5b60200260200101518152506000808884815181106110d1577f4e487b7100000000000000000000000000000000000000000000000000000000600052603260045260246000fd5b6020026020010151815260200190815260200160002060008973ffffffffffffffffffffffffffffffffffffffff1673ffffffffffffffffffffffffffffffffffffffff16815260200190815260200160002060008201518160000160006101000a81548173ffffffffffffffffffffffffffffffffffffffff021916908373ffffffffffffffffffffffffffffffffffffffff16021790555060208201518160010155604082015181600201559050503373ffffffffffffffffffffffffffffffffffffffff168682815181106111d2577f4e487b7100000000000000000000000000000000000000000000000000000000600052603260045260246000fd5b60200260200101518873ffffffffffffffffffffffffffffffffffffffff167f6a20fe4f4f0e9d8f0f40f57d4cb1a9624c1f0d6d2fd864f9a0537d0a087fad1688858151811061124b577f4e487b7100000000000000000000000000000000000000000000000000000000600052603260045260246000fd5b602002602001015188868151811061128c577f4e487b7100000000000000000000000000000000000000000000000000000000600052603260045260246000fd5b60200260200101516040516112a292919061197f565b60405180910390a480806112b590611bcb565b915050610e90565b50505050505050565b60006112d96112d4846119cd565b6119a8565b905080838252602082019050828560208602820111156112f857600080fd5b60005b85811015611328578161130e88826113d9565b8452602084019350602083019250506001810190506112fb565b5050509392505050565b6000611345611340846119f9565b6119a8565b90508281526020810184848401111561135d57600080fd5b611368848285611b58565b509392505050565b60008135905061137f81611cfb565b92915050565b600082601f83011261139657600080fd5b81356113a68482602086016112c6565b91505092915050565b600082601f8301126113c057600080fd5b81356113d0848260208601611332565b91505092915050565b6000813590506113e881611d12565b92915050565b6000815190506113fd81611d12565b92915050565b6000806040838503121561141657600080fd5b600061142485828601611370565b925050602083013567ffffffffffffffff81111561144157600080fd5b61144d85828601611385565b9150509250929050565b6000806000806080858703121561146d57600080fd5b600061147b87828801611370565b945050602085013567ffffffffffffffff81111561149857600080fd5b6114a487828801611385565b935050604085013567ffffffffffffffff8111156114c157600080fd5b6114cd87828801611385565b925050606085013567ffffffffffffffff8111156114ea57600080fd5b6114f687828801611385565b91505092959194509250565b60008060006060848603121561151757600080fd5b600061152586828701611370565b935050602084013567ffffffffffffffff81111561154257600080fd5b61154e86828701611385565b925050604084013567ffffffffffffffff81111561156b57600080fd5b611577868287016113af565b9150509250925092565b6000806040838503121561159457600080fd5b60006115a285828601611370565b92505060206115b3858286016113d9565b9150509250929050565b6000806000606084860312156115d257600080fd5b60006115e086828701611370565b93505060206115f1868287016113d9565b925050604084013567ffffffffffffffff81111561160e57600080fd5b61161a868287016113af565b9150509250925092565b6000806000806080858703121561163a57600080fd5b600061164887828801611370565b9450506020611659878288016113d9565b935050604061166a878288016113d9565b925050606061167b878288016113d9565b91505092959194509250565b60006020828403121561169957600080fd5b60006116a7848285016113ee565b91505092915050565b600080604083850312156116c357600080fd5b60006116d1858286016113d9565b92505060206116e285828601611370565b9150509250929050565b60006116f883836117ff565b60208301905092915050565b61170d81611b22565b82525050565b61171c81611ae6565b82525050565b600061172d82611a3a565b6117378185611a5d565b935061174283611a2a565b8060005b8381101561177357815161175a88826116ec565b975061176583611a50565b925050600181019050611746565b5085935050505092915050565b600061178b82611a45565b6117958185611a6e565b93506117a5818560208601611b67565b6117ae81611c72565b840191505092915050565b60006117c6602383611a7f565b91506117d182611c83565b604082019050919050565b60006117e9601283611a7f565b91506117f482611cd2565b602082019050919050565b61180881611b18565b82525050565b61181781611b18565b82525050565b600060a0820190506118326000830188611704565b61183f6020830187611713565b81810360408301526118518186611722565b905081810360608301526118658185611722565b905081810360808301526118798184611780565b90509695505050505050565b600060a08201905061189a6000830188611704565b6118a76020830187611713565b6118b4604083018661180e565b6118c1606083018561180e565b81810360808301526118d38184611780565b90509695505050505050565b60006040820190506118f46000830185611713565b611901602083018461180e565b9392505050565b600060608201905061191d6000830186611713565b61192a602083018561180e565b611937604083018461180e565b949350505050565b60006020820190508181036000830152611958816117b9565b9050919050565b60006020820190508181036000830152611978816117dc565b9050919050565b6000604082019050611994600083018561180e565b6119a1602083018461180e565b9392505050565b60006119b26119c3565b90506119be8282611b9a565b919050565b6000604051905090565b600067ffffffffffffffff8211156119e8576119e7611c43565b5b602082029050602081019050919050565b600067ffffffffffffffff821115611a1457611a13611c43565b5b611a1d82611c72565b9050602081019050919050565b6000819050602082019050919050565b600081519050919050565b600081519050919050565b6000602082019050919050565b600082825260208201905092915050565b600082825260208201905092915050565b600082825260208201905092915050565b6000611a9b82611b18565b9150611aa683611b18565b9250827fffffffffffffffffffffffffffffffffffffffffffffffffffffffffffffffff03821115611adb57611ada611c14565b5b828201905092915050565b6000611af182611af8565b9050919050565b600073ffffffffffffffffffffffffffffffffffffffff82169050919050565b6000819050919050565b6000611b2d82611b34565b9050919050565b6000611b3f82611b46565b9050919050565b6000611b5182611af8565b9050919050565b82818337600083830152505050565b60005b83811015611b85578082015181840152602081019050611b6a565b83811115611b94576000848401525b50505050565b611ba382611c72565b810181811067ffffffffffffffff82111715611bc257611bc1611c43565b5b80604052505050565b6000611bd682611b18565b91507fffffffffffffffffffffffffffffffffffffffffffffffffffffffffffffffff821415611c0957611c08611c14565b5b600182019050919050565b7f4e487b7100000000000000000000000000000000000000000000000000000000600052601160045260246000fd5b7f4e487b7100000000000000000000000000000000000000000000000000000000600052604160045260246000fd5b6000601f19601f8301169050919050565b7f76616c756520646f65736e2774206d6174636820726571756972656420616d6f60008201527f756e740000000000000000000000000000000000000000000000000000000000602082015250565b7f4e6f7420656e6f7567682062616c616e63650000000000000000000000000000600082015250565b611d0481611ae6565b8114611d0f57600080fd5b50565b611d1b81611b18565b8114611d2657600080fd5b5056fea2646970667358221220526b3dc571c6ce26cffb8c55db82fba8aa8135eb1027ce9a34f58493826b6bdf64736f6c63430008020033",
  "linkReferences": {},
  "deployedLinkReferences": {}
}