{
  "_format": "hh-sol-artifact-1",
  "contractName": "Marketplace1155",
  "sourceName": "contracts/Marketplace1155.sol",
  "abi": [
    {
      "anonymous": false,
      "inputs": [
        {
          "indexed": true,
          "internalType": "address",
          "name": "tokenContract",
          "type": "address"
        },
        {
          "indexed": true,
          "internalType": "uint256",
          "name": "id",
          "type": "uint256"
        },
        {
          "indexed": true,
          "internalType": "address",
          "name": "owner",
          "type": "address"
        },
        {
          "indexed": false,
          "internalType": "uint256",
          "name": "amount",
          "type": "uint256"
        },
        {
          "indexed": false,
          "internalType": "uint256",
          "name": "price",
          "type": "uint256"
        }
      ],
      "name": "OnSale",
      "type": "event"
    },
    {
      "inputs": [
        {
          "internalType": "address",
          "name": "_contract",
          "type": "address"
        },
        {
          "internalType": "uint256[]",
          "name": "_ids",
          "type": "uint256[]"
        },
        {
          "internalType": "address payable",
          "name": "_owner",
          "type": "address"
        },
        {
          "internalType": "address",
          "name": "_to",
          "type": "address"
        },
        {
          "internalType": "uint256[]",
          "name": "_amount",
          "type": "uint256[]"
        },
        {
          "internalType": "bytes",
          "name": "_data",
          "type": "bytes"
        }
      ],
      "name": "acceptBatchOffer",
      "outputs": [],
      "stateMutability": "payable",
      "type": "function"
    },
    {
      "inputs": [
        {
          "internalType": "address",
          "name": "_contract",
          "type": "address"
        },
        {
          "internalType": "uint256",
          "name": "_id",
          "type": "uint256"
        },
        {
          "internalType": "address payable",
          "name": "_owner",
          "type": "address"
        },
        {
          "internalType": "address",
          "name": "_to",
          "type": "address"
        },
        {
          "internalType": "uint256",
          "name": "_amount",
          "type": "uint256"
        },
        {
          "internalType": "bytes",
          "name": "_data",
          "type": "bytes"
        }
      ],
      "name": "acceptOffer",
      "outputs": [],
      "stateMutability": "payable",
      "type": "function"
    },
    {
      "inputs": [
        {
          "internalType": "address",
          "name": "_contract",
          "type": "address"
        },
        {
          "internalType": "uint256[]",
          "name": "_ids",
          "type": "uint256[]"
        },
        {
          "internalType": "uint256[]",
          "name": "_amounts",
          "type": "uint256[]"
        },
        {
          "internalType": "uint256[]",
          "name": "_prices",
          "type": "uint256[]"
        }
      ],
      "name": "addBatchOffer",
      "outputs": [],
      "stateMutability": "nonpayable",
      "type": "function"
    },
    {
      "inputs": [
        {
          "internalType": "address",
          "name": "_contract",
          "type": "address"
        },
        {
          "internalType": "uint256",
          "name": "_id",
          "type": "uint256"
        },
        {
          "internalType": "uint256",
          "name": "_amount",
          "type": "uint256"
        },
        {
          "internalType": "uint256",
          "name": "_price",
          "type": "uint256"
        }
      ],
      "name": "addOffer",
      "outputs": [],
      "stateMutability": "nonpayable",
      "type": "function"
    },
    {
      "inputs": [
        {
          "internalType": "address",
          "name": "_contract",
          "type": "address"
        },
        {
          "internalType": "uint256[]",
          "name": "_ids",
          "type": "uint256[]"
        }
      ],
      "name": "cancelBatchOffer",
      "outputs": [],
      "stateMutability": "nonpayable",
      "type": "function"
    },
    {
      "inputs": [
        {
          "internalType": "address",
          "name": "_contract",
          "type": "address"
        },
        {
          "internalType": "uint256",
          "name": "_id",
          "type": "uint256"
        }
      ],
      "name": "cancelOffer",
      "outputs": [],
      "stateMutability": "nonpayable",
      "type": "function"
    },
    {
      "inputs": [
        {
          "internalType": "address",
          "name": "",
          "type": "address"
        },
        {
          "internalType": "uint256",
          "name": "",
          "type": "uint256"
        },
        {
          "internalType": "address",
          "name": "",
          "type": "address"
        }
      ],
      "name": "toSell",
      "outputs": [
        {
          "internalType": "uint256",
          "name": "amount",
          "type": "uint256"
        },
        {
          "internalType": "uint256",
          "name": "price",
          "type": "uint256"
        }
      ],
      "stateMutability": "view",
      "type": "function"
    }
  ],
  "bytecode": "0x608060405234801561001057600080fd5b50612630806100206000396000f3fe6080604052600436106100705760003560e01c806399f64bf81161004e57806399f64bf8146100e35780639cb010a914610121578063c9bb06d01461014a578063d2108cfd1461016657610070565b8063058a56ac14610075578063646f3e571461009e5780638f709351146100ba575b600080fd5b34801561008157600080fd5b5061009c60048036038101906100979190611b60565b61018f565b005b6100b860048036038101906100b39190611beb565b610232565b005b3480156100c657600080fd5b506100e160048036038101906100dc9190611c8c565b61073a565b005b3480156100ef57600080fd5b5061010a60048036038101906101059190611b9c565b610932565b6040516101189291906120a9565b60405180910390f35b34801561012d57600080fd5b5061014860048036038101906101439190611990565b610970565b005b610164600480360381019061015f91906119e4565b610a73565b005b34801561017257600080fd5b5061018d60048036038101906101889190611ab5565b611358565b005b6000808373ffffffffffffffffffffffffffffffffffffffff1673ffffffffffffffffffffffffffffffffffffffff168152602001908152602001600020600082815260200190815260200160002060003373ffffffffffffffffffffffffffffffffffffffff1673ffffffffffffffffffffffffffffffffffffffff168152602001908152602001600020600080820160009055600182016000905550505050565b600086905060008060008973ffffffffffffffffffffffffffffffffffffffff1673ffffffffffffffffffffffffffffffffffffffff168152602001908152602001600020600088815260200190815260200160002060008773ffffffffffffffffffffffffffffffffffffffff1673ffffffffffffffffffffffffffffffffffffffff1681526020019081526020016000209050600084116102d457600080fd5b6000808973ffffffffffffffffffffffffffffffffffffffff1673ffffffffffffffffffffffffffffffffffffffff168152602001908152602001600020600088815260200190815260200160002060008773ffffffffffffffffffffffffffffffffffffffff1673ffffffffffffffffffffffffffffffffffffffff168152602001908152602001600020600001548411156103a6576040517f08c379a000000000000000000000000000000000000000000000000000000000815260040161039d90611fe9565b60405180910390fd5b838273ffffffffffffffffffffffffffffffffffffffff1662fdd58e888a6040518363ffffffff1660e01b81526004016103e1929190611f97565b60206040518083038186803b1580156103f957600080fd5b505afa15801561040d573d6000803e3d6000fd5b505050506040513d601f19601f820116820180604052508101906104319190611cef565b1015610472576040517f08c379a000000000000000000000000000000000000000000000000000000000815260040161046990612009565b60405180910390fd5b610514846000808b73ffffffffffffffffffffffffffffffffffffffff1673ffffffffffffffffffffffffffffffffffffffff16815260200190815260200160002060008a815260200190815260200160002060008973ffffffffffffffffffffffffffffffffffffffff1673ffffffffffffffffffffffffffffffffffffffff168152602001908152602001600020600101546117fc90919063ffffffff16565b341461051f57600080fd5b8173ffffffffffffffffffffffffffffffffffffffff1663f242432a87878a88886040518663ffffffff1660e01b8152600401610560959493929190611f3d565b600060405180830381600087803b15801561057a57600080fd5b505af115801561058e573d6000803e3d6000fd5b505050508573ffffffffffffffffffffffffffffffffffffffff166108fc349081150290604051600060405180830381858888f193505050501580156105d8573d6000803e3d6000fd5b506105f084826000015461181290919063ffffffff16565b816000018190555060008060008a73ffffffffffffffffffffffffffffffffffffffff1673ffffffffffffffffffffffffffffffffffffffff168152602001908152602001600020600089815260200190815260200160002060008873ffffffffffffffffffffffffffffffffffffffff1673ffffffffffffffffffffffffffffffffffffffff168152602001908152602001600020600001541415610730576000808973ffffffffffffffffffffffffffffffffffffffff1673ffffffffffffffffffffffffffffffffffffffff168152602001908152602001600020600088815260200190815260200160002060008773ffffffffffffffffffffffffffffffffffffffff1673ffffffffffffffffffffffffffffffffffffffff168152602001908152602001600020600080820160009055600182016000905550505b5050505050505050565b6000849050828173ffffffffffffffffffffffffffffffffffffffff1662fdd58e33876040518363ffffffff1660e01b815260040161077a929190611fc0565b60206040518083038186803b15801561079257600080fd5b505afa1580156107a6573d6000803e3d6000fd5b505050506040513d601f19601f820116820180604052508101906107ca9190611cef565b101561080b576040517f08c379a000000000000000000000000000000000000000000000000000000000815260040161080290612069565b60405180910390fd5b6040518060400160405280848152602001838152506000808773ffffffffffffffffffffffffffffffffffffffff1673ffffffffffffffffffffffffffffffffffffffff168152602001908152602001600020600086815260200190815260200160002060003373ffffffffffffffffffffffffffffffffffffffff1673ffffffffffffffffffffffffffffffffffffffff16815260200190815260200160002060008201518160000155602082015181600101559050503373ffffffffffffffffffffffffffffffffffffffff16848673ffffffffffffffffffffffffffffffffffffffff167f6a20fe4f4f0e9d8f0f40f57d4cb1a9624c1f0d6d2fd864f9a0537d0a087fad1686866040516109239291906120a9565b60405180910390a45050505050565b600060205282600052604060002060205281600052604060002060205280600052604060002060009250925050508060000154908060010154905082565b60005b8151811015610a6e576000808473ffffffffffffffffffffffffffffffffffffffff1673ffffffffffffffffffffffffffffffffffffffff16815260200190815260200160002060008383815181106109f5577f4e487b7100000000000000000000000000000000000000000000000000000000600052603260045260246000fd5b6020026020010151815260200190815260200160002060003373ffffffffffffffffffffffffffffffffffffffff1673ffffffffffffffffffffffffffffffffffffffff168152602001908152602001600020600080820160009055600182016000905550508080610a6690612395565b915050610973565b505050565b60008690506000865190506000808267ffffffffffffffff811115610ac1577f4e487b7100000000000000000000000000000000000000000000000000000000600052604160045260246000fd5b604051908082528060200260200182016040528015610aef5781602001602082028036833780820191505090505b50905082865114610aff57600080fd5b60005b83811015610eca576000878281518110610b45577f4e487b7100000000000000000000000000000000000000000000000000000000600052603260045260246000fd5b602002602001015111610b5757600080fd5b6000808c73ffffffffffffffffffffffffffffffffffffffff1673ffffffffffffffffffffffffffffffffffffffff16815260200190815260200160002060008b8381518110610bd0577f4e487b7100000000000000000000000000000000000000000000000000000000600052603260045260246000fd5b6020026020010151815260200190815260200160002060008a73ffffffffffffffffffffffffffffffffffffffff1673ffffffffffffffffffffffffffffffffffffffff16815260200190815260200160002060000154878281518110610c60577f4e487b7100000000000000000000000000000000000000000000000000000000600052603260045260246000fd5b60200260200101511115610ca9576040517f08c379a0000000000000000000000000000000000000000000000000000000008152600401610ca090611fe9565b60405180910390fd5b610ddd610dce888381518110610ce8577f4e487b7100000000000000000000000000000000000000000000000000000000600052603260045260246000fd5b60200260200101516000808f73ffffffffffffffffffffffffffffffffffffffff1673ffffffffffffffffffffffffffffffffffffffff16815260200190815260200160002060008e8681518110610d69577f4e487b7100000000000000000000000000000000000000000000000000000000600052603260045260246000fd5b6020026020010151815260200190815260200160002060008d73ffffffffffffffffffffffffffffffffffffffff1673ffffffffffffffffffffffffffffffffffffffff168152602001908152602001600020600101546117fc90919063ffffffff16565b8461182890919063ffffffff16565b9250610e72878281518110610e1b577f4e487b7100000000000000000000000000000000000000000000000000000000600052603260045260246000fd5b6020026020010151838381518110610e5c577f4e487b7100000000000000000000000000000000000000000000000000000000600052603260045260246000fd5b602002602001015161182890919063ffffffff16565b828281518110610eab577f4e487b7100000000000000000000000000000000000000000000000000000000600052603260045260246000fd5b6020026020010181815250508080610ec290612395565b915050610b02565b50813414610f0d576040517f08c379a0000000000000000000000000000000000000000000000000000000008152600401610f0490612089565b60405180910390fd5b60005b838110156112d85761103a878281518110610f54577f4e487b7100000000000000000000000000000000000000000000000000000000600052603260045260246000fd5b60200260200101516000808e73ffffffffffffffffffffffffffffffffffffffff1673ffffffffffffffffffffffffffffffffffffffff16815260200190815260200160002060008d8581518110610fd5577f4e487b7100000000000000000000000000000000000000000000000000000000600052603260045260246000fd5b6020026020010151815260200190815260200160002060008c73ffffffffffffffffffffffffffffffffffffffff1673ffffffffffffffffffffffffffffffffffffffff1681526020019081526020016000206000015461181290919063ffffffff16565b6000808d73ffffffffffffffffffffffffffffffffffffffff1673ffffffffffffffffffffffffffffffffffffffff16815260200190815260200160002060008c84815181106110b3577f4e487b7100000000000000000000000000000000000000000000000000000000600052603260045260246000fd5b6020026020010151815260200190815260200160002060008b73ffffffffffffffffffffffffffffffffffffffff1673ffffffffffffffffffffffffffffffffffffffff1681526020019081526020016000206000018190555060008060008d73ffffffffffffffffffffffffffffffffffffffff1673ffffffffffffffffffffffffffffffffffffffff16815260200190815260200160002060008c8481518110611188577f4e487b7100000000000000000000000000000000000000000000000000000000600052603260045260246000fd5b6020026020010151815260200190815260200160002060008b73ffffffffffffffffffffffffffffffffffffffff1673ffffffffffffffffffffffffffffffffffffffff1681526020019081526020016000206000015414156112c5576000808c73ffffffffffffffffffffffffffffffffffffffff1673ffffffffffffffffffffffffffffffffffffffff16815260200190815260200160002060008b838151811061125e577f4e487b7100000000000000000000000000000000000000000000000000000000600052603260045260246000fd5b6020026020010151815260200190815260200160002060008a73ffffffffffffffffffffffffffffffffffffffff1673ffffffffffffffffffffffffffffffffffffffff168152602001908152602001600020600080820160009055600182016000905550505b80806112d090612395565b915050610f10565b508373ffffffffffffffffffffffffffffffffffffffff16632eb2c2d689898c858a6040518663ffffffff1660e01b815260040161131a959493929190611ed5565b600060405180830381600087803b15801561133457600080fd5b505af1158015611348573d6000803e3d6000fd5b5050505050505050505050505050565b6000849050600084519050808451146113a6576040517f08c379a000000000000000000000000000000000000000000000000000000000815260040161139d90612049565b60405180910390fd5b808351146113e9576040517f08c379a00000000000000000000000000000000000000000000000000000000081526004016113e090612049565b60405180910390fd5b60005b818110156117f35784818151811061142d577f4e487b7100000000000000000000000000000000000000000000000000000000600052603260045260246000fd5b60200260200101518373ffffffffffffffffffffffffffffffffffffffff1662fdd58e3389858151811061148a577f4e487b7100000000000000000000000000000000000000000000000000000000600052603260045260246000fd5b60200260200101516040518363ffffffff1660e01b81526004016114af929190611fc0565b60206040518083038186803b1580156114c757600080fd5b505afa1580156114db573d6000803e3d6000fd5b505050506040513d601f19601f820116820180604052508101906114ff9190611cef565b1015611540576040517f08c379a000000000000000000000000000000000000000000000000000000000815260040161153790612029565b60405180910390fd5b6040518060400160405280868381518110611584577f4e487b7100000000000000000000000000000000000000000000000000000000600052603260045260246000fd5b602002602001015181526020018583815181106115ca577f4e487b7100000000000000000000000000000000000000000000000000000000600052603260045260246000fd5b60200260200101518152506000808973ffffffffffffffffffffffffffffffffffffffff1673ffffffffffffffffffffffffffffffffffffffff168152602001908152602001600020600088848151811061164e577f4e487b7100000000000000000000000000000000000000000000000000000000600052603260045260246000fd5b6020026020010151815260200190815260200160002060003373ffffffffffffffffffffffffffffffffffffffff1673ffffffffffffffffffffffffffffffffffffffff16815260200190815260200160002060008201518160000155602082015181600101559050503373ffffffffffffffffffffffffffffffffffffffff16868281518110611708577f4e487b7100000000000000000000000000000000000000000000000000000000600052603260045260246000fd5b60200260200101518873ffffffffffffffffffffffffffffffffffffffff167f6a20fe4f4f0e9d8f0f40f57d4cb1a9624c1f0d6d2fd864f9a0537d0a087fad16888581518110611781577f4e487b7100000000000000000000000000000000000000000000000000000000600052603260045260246000fd5b60200260200101518886815181106117c2577f4e487b7100000000000000000000000000000000000000000000000000000000600052603260045260246000fd5b60200260200101516040516117d89291906120a9565b60405180910390a480806117eb90612395565b9150506113ec565b50505050505050565b6000818361180a9190612210565b905092915050565b60008183611820919061226a565b905092915050565b6000818361183691906121ba565b905092915050565b600061185161184c846120f7565b6120d2565b9050808382526020820190508285602086028201111561187057600080fd5b60005b858110156118a057816118868882611966565b845260208401935060208301925050600181019050611873565b5050509392505050565b60006118bd6118b884612123565b6120d2565b9050828152602081018484840111156118d557600080fd5b6118e0848285612322565b509392505050565b6000813590506118f7816125b5565b92915050565b60008135905061190c816125cc565b92915050565b600082601f83011261192357600080fd5b813561193384826020860161183e565b91505092915050565b600082601f83011261194d57600080fd5b813561195d8482602086016118aa565b91505092915050565b600081359050611975816125e3565b92915050565b60008151905061198a816125e3565b92915050565b600080604083850312156119a357600080fd5b60006119b1858286016118e8565b925050602083013567ffffffffffffffff8111156119ce57600080fd5b6119da85828601611912565b9150509250929050565b60008060008060008060c087890312156119fd57600080fd5b6000611a0b89828a016118e8565b965050602087013567ffffffffffffffff811115611a2857600080fd5b611a3489828a01611912565b9550506040611a4589828a016118fd565b9450506060611a5689828a016118e8565b935050608087013567ffffffffffffffff811115611a7357600080fd5b611a7f89828a01611912565b92505060a087013567ffffffffffffffff811115611a9c57600080fd5b611aa889828a0161193c565b9150509295509295509295565b60008060008060808587031215611acb57600080fd5b6000611ad9878288016118e8565b945050602085013567ffffffffffffffff811115611af657600080fd5b611b0287828801611912565b935050604085013567ffffffffffffffff811115611b1f57600080fd5b611b2b87828801611912565b925050606085013567ffffffffffffffff811115611b4857600080fd5b611b5487828801611912565b91505092959194509250565b60008060408385031215611b7357600080fd5b6000611b81858286016118e8565b9250506020611b9285828601611966565b9150509250929050565b600080600060608486031215611bb157600080fd5b6000611bbf868287016118e8565b9350506020611bd086828701611966565b9250506040611be1868287016118e8565b9150509250925092565b60008060008060008060c08789031215611c0457600080fd5b6000611c1289828a016118e8565b9650506020611c2389828a01611966565b9550506040611c3489828a016118fd565b9450506060611c4589828a016118e8565b9350506080611c5689828a01611966565b92505060a087013567ffffffffffffffff811115611c7357600080fd5b611c7f89828a0161193c565b9150509295509295509295565b60008060008060808587031215611ca257600080fd5b6000611cb0878288016118e8565b9450506020611cc187828801611966565b9350506040611cd287828801611966565b9250506060611ce387828801611966565b91505092959194509250565b600060208284031215611d0157600080fd5b6000611d0f8482850161197b565b91505092915050565b6000611d248383611eb7565b60208301905092915050565b611d39816122ec565b82525050565b611d488161229e565b82525050565b6000611d5982612164565b611d638185612187565b9350611d6e83612154565b8060005b83811015611d9f578151611d868882611d18565b9750611d918361217a565b925050600181019050611d72565b5085935050505092915050565b6000611db78261216f565b611dc18185612198565b9350611dd1818560208601612331565b611dda8161243c565b840191505092915050565b6000611df26010836121a9565b9150611dfd8261244d565b602082019050919050565b6000611e156038836121a9565b9150611e2082612476565b604082019050919050565b6000611e386014836121a9565b9150611e43826124c5565b602082019050919050565b6000611e5b6032836121a9565b9150611e66826124ee565b604082019050919050565b6000611e7e6011836121a9565b9150611e898261253d565b602082019050919050565b6000611ea16033836121a9565b9150611eac82612566565b604082019050919050565b611ec0816122e2565b82525050565b611ecf816122e2565b82525050565b600060a082019050611eea6000830188611d30565b611ef76020830187611d3f565b8181036040830152611f098186611d4e565b90508181036060830152611f1d8185611d4e565b90508181036080830152611f318184611dac565b90509695505050505050565b600060a082019050611f526000830188611d30565b611f5f6020830187611d3f565b611f6c6040830186611ec6565b611f796060830185611ec6565b8181036080830152611f8b8184611dac565b90509695505050505050565b6000604082019050611fac6000830185611d30565b611fb96020830184611ec6565b9392505050565b6000604082019050611fd56000830185611d3f565b611fe26020830184611ec6565b9392505050565b6000602082019050818103600083015261200281611de5565b9050919050565b6000602082019050818103600083015261202281611e08565b9050919050565b6000602082019050818103600083015261204281611e2b565b9050919050565b6000602082019050818103600083015261206281611e4e565b9050919050565b6000602082019050818103600083015261208281611e71565b9050919050565b600060208201905081810360008301526120a281611e94565b9050919050565b60006040820190506120be6000830185611ec6565b6120cb6020830184611ec6565b9392505050565b60006120dc6120ed565b90506120e88282612364565b919050565b6000604051905090565b600067ffffffffffffffff8211156121125761211161240d565b5b602082029050602081019050919050565b600067ffffffffffffffff82111561213e5761213d61240d565b5b6121478261243c565b9050602081019050919050565b6000819050602082019050919050565b600081519050919050565b600081519050919050565b6000602082019050919050565b600082825260208201905092915050565b600082825260208201905092915050565b600082825260208201905092915050565b60006121c5826122e2565b91506121d0836122e2565b9250827fffffffffffffffffffffffffffffffffffffffffffffffffffffffffffffffff03821115612205576122046123de565b5b828201905092915050565b600061221b826122e2565b9150612226836122e2565b9250817fffffffffffffffffffffffffffffffffffffffffffffffffffffffffffffffff048311821515161561225f5761225e6123de565b5b828202905092915050565b6000612275826122e2565b9150612280836122e2565b925082821015612293576122926123de565b5b828203905092915050565b60006122a9826122c2565b9050919050565b60006122bb826122c2565b9050919050565b600073ffffffffffffffffffffffffffffffffffffffff82169050919050565b6000819050919050565b60006122f7826122fe565b9050919050565b600061230982612310565b9050919050565b600061231b826122c2565b9050919050565b82818337600083830152505050565b60005b8381101561234f578082015181840152602081019050612334565b8381111561235e576000848401525b50505050565b61236d8261243c565b810181811067ffffffffffffffff8211171561238c5761238b61240d565b5b80604052505050565b60006123a0826122e2565b91507fffffffffffffffffffffffffffffffffffffffffffffffffffffffffffffffff8214156123d3576123d26123de565b5b600182019050919050565b7f4e487b7100000000000000000000000000000000000000000000000000000000600052601160045260246000fd5b7f4e487b7100000000000000000000000000000000000000000000000000000000600052604160045260246000fd5b6000601f19601f8301169050919050565b7f4e6f7420656e6f7567682073746f636b00000000000000000000000000000000600082015250565b7f53656c6c6572206e6f206c6f6e676572206f776e7320656e6f75676820746f6b60008201527f656e7320666f722074686973207472616e73616374696f6e0000000000000000602082015250565b7f496e73756666696369656e742062616c616e6365000000000000000000000000600082015250565b7f5468652073697a65206f662069647320616e6420616e6420616d6f756e74732060008201527f73686f756c64206265207468652073616d650000000000000000000000000000602082015250565b7f4e6f7420656e6f75676820746f6b656e73000000000000000000000000000000600082015250565b7f56616c756520646f65736e2774206d6174636820726571756972656420616d6f60008201527f756e7420666f72207472616e73616374696f6e00000000000000000000000000602082015250565b6125be8161229e565b81146125c957600080fd5b50565b6125d5816122b0565b81146125e057600080fd5b50565b6125ec816122e2565b81146125f757600080fd5b5056fea264697066735822122094bb4936d749a7741fee93709e01bcad655860b92ffee2da462d480006f874f664736f6c63430008020033",
  "linkReferences": {},
  "deployedLinkReferences": {}
}