{
  "_format": "hh-sol-artifact-1",
  "contractName": "Marketplace1155",
  "sourceName": "contracts/Marketplace1155.sol",
  "abi": [
    {
      "anonymous": false,
      "inputs": [
        {
          "indexed": true,
          "internalType": "address",
          "name": "tokenContract",
          "type": "address"
        },
        {
          "indexed": true,
          "internalType": "uint256",
          "name": "id",
          "type": "uint256"
        },
        {
          "indexed": true,
          "internalType": "address",
          "name": "owner",
          "type": "address"
        },
        {
          "indexed": false,
          "internalType": "uint256",
          "name": "amount",
          "type": "uint256"
        },
        {
          "indexed": false,
          "internalType": "uint256",
          "name": "price",
          "type": "uint256"
        }
      ],
      "name": "OnSale",
      "type": "event"
    },
    {
      "inputs": [
        {
          "internalType": "address",
          "name": "_contract",
          "type": "address"
        },
        {
          "internalType": "uint256[]",
          "name": "_ids",
          "type": "uint256[]"
        },
        {
          "internalType": "address payable",
          "name": "_owner",
          "type": "address"
        },
        {
          "internalType": "uint256[]",
          "name": "_amount",
          "type": "uint256[]"
        },
        {
          "internalType": "bytes",
          "name": "_data",
          "type": "bytes"
        }
      ],
      "name": "acceptBatchOffer",
      "outputs": [],
      "stateMutability": "payable",
      "type": "function"
    },
    {
      "inputs": [
        {
          "internalType": "address",
          "name": "_contract",
          "type": "address"
        },
        {
          "internalType": "uint256",
          "name": "_id",
          "type": "uint256"
        },
        {
          "internalType": "address payable",
          "name": "_owner",
          "type": "address"
        },
        {
          "internalType": "uint256",
          "name": "_amount",
          "type": "uint256"
        },
        {
          "internalType": "bytes",
          "name": "_data",
          "type": "bytes"
        }
      ],
      "name": "acceptOffer",
      "outputs": [],
      "stateMutability": "payable",
      "type": "function"
    },
    {
      "inputs": [
        {
          "internalType": "address",
          "name": "_contract",
          "type": "address"
        },
        {
          "internalType": "uint256[]",
          "name": "_ids",
          "type": "uint256[]"
        },
        {
          "internalType": "uint256[]",
          "name": "_amounts",
          "type": "uint256[]"
        },
        {
          "internalType": "uint256[]",
          "name": "_pricesPerToken",
          "type": "uint256[]"
        }
      ],
      "name": "addBatchOffer",
      "outputs": [],
      "stateMutability": "nonpayable",
      "type": "function"
    },
    {
      "inputs": [
        {
          "internalType": "address",
          "name": "_contract",
          "type": "address"
        },
        {
          "internalType": "uint256",
          "name": "_id",
          "type": "uint256"
        },
        {
          "internalType": "uint256",
          "name": "_amount",
          "type": "uint256"
        },
        {
          "internalType": "uint256",
          "name": "_pricePerToken",
          "type": "uint256"
        }
      ],
      "name": "addOffer",
      "outputs": [],
      "stateMutability": "nonpayable",
      "type": "function"
    },
    {
      "inputs": [
        {
          "internalType": "address",
          "name": "_contract",
          "type": "address"
        },
        {
          "internalType": "uint256[]",
          "name": "_ids",
          "type": "uint256[]"
        }
      ],
      "name": "cancelBatchOffer",
      "outputs": [],
      "stateMutability": "nonpayable",
      "type": "function"
    },
    {
      "inputs": [
        {
          "internalType": "address",
          "name": "_contract",
          "type": "address"
        },
        {
          "internalType": "uint256",
          "name": "_id",
          "type": "uint256"
        }
      ],
      "name": "cancelOffer",
      "outputs": [],
      "stateMutability": "nonpayable",
      "type": "function"
    },
    {
      "inputs": [
        {
          "internalType": "address",
          "name": "",
          "type": "address"
        },
        {
          "internalType": "uint256",
          "name": "",
          "type": "uint256"
        },
        {
          "internalType": "address",
          "name": "",
          "type": "address"
        }
      ],
      "name": "toSell",
      "outputs": [
        {
          "internalType": "uint256",
          "name": "amount",
          "type": "uint256"
        },
        {
          "internalType": "uint256",
          "name": "price",
          "type": "uint256"
        }
      ],
      "stateMutability": "view",
      "type": "function"
    }
  ],
  "bytecode": "0x608060405234801561001057600080fd5b50612f2e806100206000396000f3fe6080604052600436106100705760003560e01c80638f7093511161004e5780638f709351146100d657806399f64bf8146100ff5780639cb010a91461013d578063d2108cfd1461016657610070565b8063058a56ac146100755780633166264a1461009e578063622882d1146100ba575b600080fd5b34801561008157600080fd5b5061009c6004803603810190610097919061255d565b61018f565b005b6100b860048036038101906100b391906123f3565b610232565b005b6100d460048036038101906100cf91906125e8565b611187565b005b3480156100e257600080fd5b506100fd60048036038101906100f89190612677565b611af0565b005b34801561010b57600080fd5b5061012660048036038101906101219190612599565b611cc3565b6040516101349291906129e5565b60405180910390f35b34801561014957600080fd5b50610164600480360381019061015f919061239f565b611d01565b005b34801561017257600080fd5b5061018d600480360381019061018891906124b2565b611e04565b005b6000808373ffffffffffffffffffffffffffffffffffffffff1673ffffffffffffffffffffffffffffffffffffffff168152602001908152602001600020600082815260200190815260200160002060003373ffffffffffffffffffffffffffffffffffffffff1673ffffffffffffffffffffffffffffffffffffffff168152602001908152602001600020600080820160009055600182016000905550505050565b60008590506000855190506000808267ffffffffffffffff811115610280577f4e487b7100000000000000000000000000000000000000000000000000000000600052604160045260246000fd5b6040519080825280602002602001820160405280156102ae5781602001602082028036833780820191505090505b50905060005b83811015610add576000808b73ffffffffffffffffffffffffffffffffffffffff1673ffffffffffffffffffffffffffffffffffffffff16815260200190815260200160002060008a8381518110610335577f4e487b7100000000000000000000000000000000000000000000000000000000600052603260045260246000fd5b6020026020010151815260200190815260200160002060008973ffffffffffffffffffffffffffffffffffffffff1673ffffffffffffffffffffffffffffffffffffffff168152602001908152602001600020600001548782815181106103c5577f4e487b7100000000000000000000000000000000000000000000000000000000600052603260045260246000fd5b6020026020010151111561040e576040517f08c379a000000000000000000000000000000000000000000000000000000000815260040161040590612985565b60405180910390fd5b6000808b73ffffffffffffffffffffffffffffffffffffffff1673ffffffffffffffffffffffffffffffffffffffff16815260200190815260200160002060008a8381518110610487577f4e487b7100000000000000000000000000000000000000000000000000000000600052603260045260246000fd5b6020026020010151815260200190815260200160002060008973ffffffffffffffffffffffffffffffffffffffff1673ffffffffffffffffffffffffffffffffffffffff16815260200190815260200160002060000154878281518110610517577f4e487b7100000000000000000000000000000000000000000000000000000000600052603260045260246000fd5b60200260200101511415610718576000808b73ffffffffffffffffffffffffffffffffffffffff1673ffffffffffffffffffffffffffffffffffffffff16815260200190815260200160002060008a838151811061059e577f4e487b7100000000000000000000000000000000000000000000000000000000600052603260045260246000fd5b6020026020010151815260200190815260200160002060008973ffffffffffffffffffffffffffffffffffffffff1673ffffffffffffffffffffffffffffffffffffffff16815260200190815260200160002060010154836106009190612af6565b92506000808b73ffffffffffffffffffffffffffffffffffffffff1673ffffffffffffffffffffffffffffffffffffffff16815260200190815260200160002060008a838151811061067b577f4e487b7100000000000000000000000000000000000000000000000000000000600052603260045260246000fd5b6020026020010151815260200190815260200160002060008973ffffffffffffffffffffffffffffffffffffffff1673ffffffffffffffffffffffffffffffffffffffff1681526020019081526020016000206000015482828151811061070b577f4e487b7100000000000000000000000000000000000000000000000000000000600052603260045260246000fd5b6020026020010181815250505b6000808b73ffffffffffffffffffffffffffffffffffffffff1673ffffffffffffffffffffffffffffffffffffffff16815260200190815260200160002060008a8381518110610791577f4e487b7100000000000000000000000000000000000000000000000000000000600052603260045260246000fd5b6020026020010151815260200190815260200160002060008973ffffffffffffffffffffffffffffffffffffffff1673ffffffffffffffffffffffffffffffffffffffff16815260200190815260200160002060000154878281518110610821577f4e487b7100000000000000000000000000000000000000000000000000000000600052603260045260246000fd5b60200260200101511015610aca5760008060008c73ffffffffffffffffffffffffffffffffffffffff1673ffffffffffffffffffffffffffffffffffffffff16815260200190815260200160002060008b84815181106108aa577f4e487b7100000000000000000000000000000000000000000000000000000000600052603260045260246000fd5b6020026020010151815260200190815260200160002060008a73ffffffffffffffffffffffffffffffffffffffff1673ffffffffffffffffffffffffffffffffffffffff16815260200190815260200160002060000154905060008060008d73ffffffffffffffffffffffffffffffffffffffff1673ffffffffffffffffffffffffffffffffffffffff16815260200190815260200160002060008c858151811061097e577f4e487b7100000000000000000000000000000000000000000000000000000000600052603260045260246000fd5b6020026020010151815260200190815260200160002060008b73ffffffffffffffffffffffffffffffffffffffff1673ffffffffffffffffffffffffffffffffffffffff168152602001908152602001600020600101549050600082826109e59190612b4c565b9050898481518110610a20577f4e487b7100000000000000000000000000000000000000000000000000000000600052603260045260246000fd5b602002602001015181610a339190612b7d565b86610a3e9190612af6565b9550898481518110610a79577f4e487b7100000000000000000000000000000000000000000000000000000000600052603260045260246000fd5b6020026020010151858581518110610aba577f4e487b7100000000000000000000000000000000000000000000000000000000600052603260045260246000fd5b6020026020010181815250505050505b8080610ad590612d02565b9150506102b4565b50813414610b20576040517f08c379a0000000000000000000000000000000000000000000000000000000008152600401610b1790612965565b60405180910390fd5b60005b838110156111085760008060008c73ffffffffffffffffffffffffffffffffffffffff1673ffffffffffffffffffffffffffffffffffffffff16815260200190815260200160002060008b8481518110610ba6577f4e487b7100000000000000000000000000000000000000000000000000000000600052603260045260246000fd5b6020026020010151815260200190815260200160002060008a73ffffffffffffffffffffffffffffffffffffffff1673ffffffffffffffffffffffffffffffffffffffff16815260200190815260200160002060000154905060008060008d73ffffffffffffffffffffffffffffffffffffffff1673ffffffffffffffffffffffffffffffffffffffff16815260200190815260200160002060008c8581518110610c7a577f4e487b7100000000000000000000000000000000000000000000000000000000600052603260045260246000fd5b6020026020010151815260200190815260200160002060008b73ffffffffffffffffffffffffffffffffffffffff1673ffffffffffffffffffffffffffffffffffffffff16815260200190815260200160002060010154905060008282610ce19190612b4c565b9050898481518110610d1c577f4e487b7100000000000000000000000000000000000000000000000000000000600052603260045260246000fd5b60200260200101516000808f73ffffffffffffffffffffffffffffffffffffffff1673ffffffffffffffffffffffffffffffffffffffff16815260200190815260200160002060008e8781518110610d9d577f4e487b7100000000000000000000000000000000000000000000000000000000600052603260045260246000fd5b6020026020010151815260200190815260200160002060008d73ffffffffffffffffffffffffffffffffffffffff1673ffffffffffffffffffffffffffffffffffffffff1681526020019081526020016000206000016000828254610e029190612bd7565b92505081905550808a8581518110610e43577f4e487b7100000000000000000000000000000000000000000000000000000000600052603260045260246000fd5b6020026020010151610e559190612b7d565b6000808f73ffffffffffffffffffffffffffffffffffffffff1673ffffffffffffffffffffffffffffffffffffffff16815260200190815260200160002060008e8781518110610ece577f4e487b7100000000000000000000000000000000000000000000000000000000600052603260045260246000fd5b6020026020010151815260200190815260200160002060008d73ffffffffffffffffffffffffffffffffffffffff1673ffffffffffffffffffffffffffffffffffffffff1681526020019081526020016000206001016000828254610f339190612bd7565b9250508190555060008060008f73ffffffffffffffffffffffffffffffffffffffff1673ffffffffffffffffffffffffffffffffffffffff16815260200190815260200160002060008e8781518110610fb5577f4e487b7100000000000000000000000000000000000000000000000000000000600052603260045260246000fd5b6020026020010151815260200190815260200160002060008d73ffffffffffffffffffffffffffffffffffffffff1673ffffffffffffffffffffffffffffffffffffffff1681526020019081526020016000206000015414156110f2576000808e73ffffffffffffffffffffffffffffffffffffffff1673ffffffffffffffffffffffffffffffffffffffff16815260200190815260200160002060008d868151811061108b577f4e487b7100000000000000000000000000000000000000000000000000000000600052603260045260246000fd5b6020026020010151815260200190815260200160002060008c73ffffffffffffffffffffffffffffffffffffffff1673ffffffffffffffffffffffffffffffffffffffff168152602001908152602001600020600080820160009055600182016000905550505b505050808061110090612d02565b915050610b23565b508373ffffffffffffffffffffffffffffffffffffffff16632eb2c2d688338b858a6040518663ffffffff1660e01b815260040161114a95949392919061287a565b600060405180830381600087803b15801561116457600080fd5b505af1158015611178573d6000803e3d6000fd5b50505050505050505050505050565b60008590506000808773ffffffffffffffffffffffffffffffffffffffff1673ffffffffffffffffffffffffffffffffffffffff168152602001908152602001600020600086815260200190815260200160002060008573ffffffffffffffffffffffffffffffffffffffff1673ffffffffffffffffffffffffffffffffffffffff1681526020019081526020016000206000015483111561125e576040517f08c379a000000000000000000000000000000000000000000000000000000000815260040161125590612985565b60405180910390fd5b6000808773ffffffffffffffffffffffffffffffffffffffff1673ffffffffffffffffffffffffffffffffffffffff168152602001908152602001600020600086815260200190815260200160002060008573ffffffffffffffffffffffffffffffffffffffff1673ffffffffffffffffffffffffffffffffffffffff1681526020019081526020016000206000015483141561157f576000808773ffffffffffffffffffffffffffffffffffffffff1673ffffffffffffffffffffffffffffffffffffffff168152602001908152602001600020600086815260200190815260200160002060008573ffffffffffffffffffffffffffffffffffffffff1673ffffffffffffffffffffffffffffffffffffffff16815260200190815260200160002060010154341461139057600080fd5b60008060008873ffffffffffffffffffffffffffffffffffffffff1673ffffffffffffffffffffffffffffffffffffffff168152602001908152602001600020600087815260200190815260200160002060008673ffffffffffffffffffffffffffffffffffffffff1673ffffffffffffffffffffffffffffffffffffffff1681526020019081526020016000206000015490508173ffffffffffffffffffffffffffffffffffffffff1663f242432a86338985886040518663ffffffff1660e01b81526004016114659594939291906128e2565b600060405180830381600087803b15801561147f57600080fd5b505af1158015611493573d6000803e3d6000fd5b505050508473ffffffffffffffffffffffffffffffffffffffff166108fc349081150290604051600060405180830381858888f193505050501580156114dd573d6000803e3d6000fd5b506000808873ffffffffffffffffffffffffffffffffffffffff1673ffffffffffffffffffffffffffffffffffffffff168152602001908152602001600020600087815260200190815260200160002060008673ffffffffffffffffffffffffffffffffffffffff1673ffffffffffffffffffffffffffffffffffffffff16815260200190815260200160002060008082016000905560018201600090555050505b6000808773ffffffffffffffffffffffffffffffffffffffff1673ffffffffffffffffffffffffffffffffffffffff168152602001908152602001600020600086815260200190815260200160002060008573ffffffffffffffffffffffffffffffffffffffff1673ffffffffffffffffffffffffffffffffffffffff16815260200190815260200160002060000154831015611ae85760008060008873ffffffffffffffffffffffffffffffffffffffff1673ffffffffffffffffffffffffffffffffffffffff168152602001908152602001600020600087815260200190815260200160002060008673ffffffffffffffffffffffffffffffffffffffff1673ffffffffffffffffffffffffffffffffffffffff16815260200190815260200160002060000154905060008060008973ffffffffffffffffffffffffffffffffffffffff1673ffffffffffffffffffffffffffffffffffffffff168152602001908152602001600020600088815260200190815260200160002060008773ffffffffffffffffffffffffffffffffffffffff1673ffffffffffffffffffffffffffffffffffffffff1681526020019081526020016000206001015490506000828261174c9190612b4c565b9050858161175a9190612b7d565b341461179b576040517f08c379a0000000000000000000000000000000000000000000000000000000008152600401611792906129c5565b60405180910390fd5b8373ffffffffffffffffffffffffffffffffffffffff1663f242432a88338b8a8a6040518663ffffffff1660e01b81526004016117dc9594939291906128e2565b600060405180830381600087803b1580156117f657600080fd5b505af115801561180a573d6000803e3d6000fd5b50505050856000808b73ffffffffffffffffffffffffffffffffffffffff1673ffffffffffffffffffffffffffffffffffffffff16815260200190815260200160002060008a815260200190815260200160002060008973ffffffffffffffffffffffffffffffffffffffff1673ffffffffffffffffffffffffffffffffffffffff16815260200190815260200160002060000160008282546118ad9190612bd7565b9250508190555080866118c09190612b7d565b6000808b73ffffffffffffffffffffffffffffffffffffffff1673ffffffffffffffffffffffffffffffffffffffff16815260200190815260200160002060008a815260200190815260200160002060008973ffffffffffffffffffffffffffffffffffffffff1673ffffffffffffffffffffffffffffffffffffffff168152602001908152602001600020600101600082825461195e9190612bd7565b925050819055508673ffffffffffffffffffffffffffffffffffffffff166108fc349081150290604051600060405180830381858888f193505050501580156119ab573d6000803e3d6000fd5b5060008060008b73ffffffffffffffffffffffffffffffffffffffff1673ffffffffffffffffffffffffffffffffffffffff16815260200190815260200160002060008a815260200190815260200160002060008973ffffffffffffffffffffffffffffffffffffffff1673ffffffffffffffffffffffffffffffffffffffff168152602001908152602001600020600001541415611ae4576000808a73ffffffffffffffffffffffffffffffffffffffff1673ffffffffffffffffffffffffffffffffffffffff168152602001908152602001600020600089815260200190815260200160002060008873ffffffffffffffffffffffffffffffffffffffff1673ffffffffffffffffffffffffffffffffffffffff168152602001908152602001600020600080820160009055600182016000905550505b5050505b505050505050565b6000849050828173ffffffffffffffffffffffffffffffffffffffff1662fdd58e33876040518363ffffffff1660e01b8152600401611b3092919061293c565b60206040518083038186803b158015611b4857600080fd5b505afa158015611b5c573d6000803e3d6000fd5b505050506040513d601f19601f82011682018060405250810190611b8091906126da565b1015611b8b57600080fd5b60008383611b999190612b7d565b90506040518060400160405280858152602001828152506000808873ffffffffffffffffffffffffffffffffffffffff1673ffffffffffffffffffffffffffffffffffffffff168152602001908152602001600020600087815260200190815260200160002060003373ffffffffffffffffffffffffffffffffffffffff1673ffffffffffffffffffffffffffffffffffffffff16815260200190815260200160002060008201518160000155602082015181600101559050503373ffffffffffffffffffffffffffffffffffffffff16858773ffffffffffffffffffffffffffffffffffffffff167f6a20fe4f4f0e9d8f0f40f57d4cb1a9624c1f0d6d2fd864f9a0537d0a087fad168785604051611cb39291906129e5565b60405180910390a4505050505050565b600060205282600052604060002060205281600052604060002060205280600052604060002060009250925050508060000154908060010154905082565b60005b8151811015611dff576000808473ffffffffffffffffffffffffffffffffffffffff1673ffffffffffffffffffffffffffffffffffffffff1681526020019081526020016000206000838381518110611d86577f4e487b7100000000000000000000000000000000000000000000000000000000600052603260045260246000fd5b6020026020010151815260200190815260200160002060003373ffffffffffffffffffffffffffffffffffffffff1673ffffffffffffffffffffffffffffffffffffffff168152602001908152602001600020600080820160009055600182016000905550508080611df790612d02565b915050611d04565b505050565b600084905060008451905080845114611e1c57600080fd5b80835114611e2957600080fd5b60005b8181101561224457848181518110611e6d577f4e487b7100000000000000000000000000000000000000000000000000000000600052603260045260246000fd5b60200260200101518373ffffffffffffffffffffffffffffffffffffffff1662fdd58e33898581518110611eca577f4e487b7100000000000000000000000000000000000000000000000000000000600052603260045260246000fd5b60200260200101516040518363ffffffff1660e01b8152600401611eef92919061293c565b60206040518083038186803b158015611f0757600080fd5b505afa158015611f1b573d6000803e3d6000fd5b505050506040513d601f19601f82011682018060405250810190611f3f91906126da565b1015611f80576040517f08c379a0000000000000000000000000000000000000000000000000000000008152600401611f77906129a5565b60405180910390fd5b6000858281518110611fbb577f4e487b7100000000000000000000000000000000000000000000000000000000600052603260045260246000fd5b6020026020010151858381518110611ffc577f4e487b7100000000000000000000000000000000000000000000000000000000600052603260045260246000fd5b602002602001015161200e9190612b7d565b90506040518060400160405280878481518110612054577f4e487b7100000000000000000000000000000000000000000000000000000000600052603260045260246000fd5b60200260200101518152602001828152506000808a73ffffffffffffffffffffffffffffffffffffffff1673ffffffffffffffffffffffffffffffffffffffff16815260200190815260200160002060008985815181106120de577f4e487b7100000000000000000000000000000000000000000000000000000000600052603260045260246000fd5b6020026020010151815260200190815260200160002060003373ffffffffffffffffffffffffffffffffffffffff1673ffffffffffffffffffffffffffffffffffffffff16815260200190815260200160002060008201518160000155602082015181600101559050503373ffffffffffffffffffffffffffffffffffffffff16878381518110612198577f4e487b7100000000000000000000000000000000000000000000000000000000600052603260045260246000fd5b60200260200101518973ffffffffffffffffffffffffffffffffffffffff167f6a20fe4f4f0e9d8f0f40f57d4cb1a9624c1f0d6d2fd864f9a0537d0a087fad16898681518110612211577f4e487b7100000000000000000000000000000000000000000000000000000000600052603260045260246000fd5b6020026020010151856040516122289291906129e5565b60405180910390a450808061223c90612d02565b915050611e2c565b50505050505050565b600061226061225b84612a33565b612a0e565b9050808382526020820190508285602086028201111561227f57600080fd5b60005b858110156122af57816122958882612375565b845260208401935060208301925050600181019050612282565b5050509392505050565b60006122cc6122c784612a5f565b612a0e565b9050828152602081018484840111156122e457600080fd5b6122ef848285612c8f565b509392505050565b60008135905061230681612eb3565b92915050565b60008135905061231b81612eca565b92915050565b600082601f83011261233257600080fd5b813561234284826020860161224d565b91505092915050565b600082601f83011261235c57600080fd5b813561236c8482602086016122b9565b91505092915050565b60008135905061238481612ee1565b92915050565b60008151905061239981612ee1565b92915050565b600080604083850312156123b257600080fd5b60006123c0858286016122f7565b925050602083013567ffffffffffffffff8111156123dd57600080fd5b6123e985828601612321565b9150509250929050565b600080600080600060a0868803121561240b57600080fd5b6000612419888289016122f7565b955050602086013567ffffffffffffffff81111561243657600080fd5b61244288828901612321565b94505060406124538882890161230c565b935050606086013567ffffffffffffffff81111561247057600080fd5b61247c88828901612321565b925050608086013567ffffffffffffffff81111561249957600080fd5b6124a58882890161234b565b9150509295509295909350565b600080600080608085870312156124c857600080fd5b60006124d6878288016122f7565b945050602085013567ffffffffffffffff8111156124f357600080fd5b6124ff87828801612321565b935050604085013567ffffffffffffffff81111561251c57600080fd5b61252887828801612321565b925050606085013567ffffffffffffffff81111561254557600080fd5b61255187828801612321565b91505092959194509250565b6000806040838503121561257057600080fd5b600061257e858286016122f7565b925050602061258f85828601612375565b9150509250929050565b6000806000606084860312156125ae57600080fd5b60006125bc868287016122f7565b93505060206125cd86828701612375565b92505060406125de868287016122f7565b9150509250925092565b600080600080600060a0868803121561260057600080fd5b600061260e888289016122f7565b955050602061261f88828901612375565b94505060406126308882890161230c565b935050606061264188828901612375565b925050608086013567ffffffffffffffff81111561265e57600080fd5b61266a8882890161234b565b9150509295509295909350565b6000806000806080858703121561268d57600080fd5b600061269b878288016122f7565b94505060206126ac87828801612375565b93505060406126bd87828801612375565b92505060606126ce87828801612375565b91505092959194509250565b6000602082840312156126ec57600080fd5b60006126fa8482850161238a565b91505092915050565b600061270f838361285c565b60208301905092915050565b61272481612c59565b82525050565b61273381612c0b565b82525050565b600061274482612aa0565b61274e8185612ac3565b935061275983612a90565b8060005b8381101561278a5781516127718882612703565b975061277c83612ab6565b92505060018101905061275d565b5085935050505092915050565b60006127a282612aab565b6127ac8185612ad4565b93506127bc818560208601612c9e565b6127c581612dd8565b840191505092915050565b60006127dd602383612ae5565b91506127e882612de9565b604082019050919050565b6000612800601083612ae5565b915061280b82612e38565b602082019050919050565b6000612823601283612ae5565b915061282e82612e61565b602082019050919050565b6000612846601583612ae5565b915061285182612e8a565b602082019050919050565b61286581612c4f565b82525050565b61287481612c4f565b82525050565b600060a08201905061288f600083018861271b565b61289c602083018761272a565b81810360408301526128ae8186612739565b905081810360608301526128c28185612739565b905081810360808301526128d68184612797565b90509695505050505050565b600060a0820190506128f7600083018861271b565b612904602083018761272a565b612911604083018661286b565b61291e606083018561286b565b81810360808301526129308184612797565b90509695505050505050565b6000604082019050612951600083018561272a565b61295e602083018461286b565b9392505050565b6000602082019050818103600083015261297e816127d0565b9050919050565b6000602082019050818103600083015261299e816127f3565b9050919050565b600060208201905081810360008301526129be81612816565b9050919050565b600060208201905081810360008301526129de81612839565b9050919050565b60006040820190506129fa600083018561286b565b612a07602083018461286b565b9392505050565b6000612a18612a29565b9050612a248282612cd1565b919050565b6000604051905090565b600067ffffffffffffffff821115612a4e57612a4d612da9565b5b602082029050602081019050919050565b600067ffffffffffffffff821115612a7a57612a79612da9565b5b612a8382612dd8565b9050602081019050919050565b6000819050602082019050919050565b600081519050919050565b600081519050919050565b6000602082019050919050565b600082825260208201905092915050565b600082825260208201905092915050565b600082825260208201905092915050565b6000612b0182612c4f565b9150612b0c83612c4f565b9250827fffffffffffffffffffffffffffffffffffffffffffffffffffffffffffffffff03821115612b4157612b40612d4b565b5b828201905092915050565b6000612b5782612c4f565b9150612b6283612c4f565b925082612b7257612b71612d7a565b5b828204905092915050565b6000612b8882612c4f565b9150612b9383612c4f565b9250817fffffffffffffffffffffffffffffffffffffffffffffffffffffffffffffffff0483118215151615612bcc57612bcb612d4b565b5b828202905092915050565b6000612be282612c4f565b9150612bed83612c4f565b925082821015612c0057612bff612d4b565b5b828203905092915050565b6000612c1682612c2f565b9050919050565b6000612c2882612c2f565b9050919050565b600073ffffffffffffffffffffffffffffffffffffffff82169050919050565b6000819050919050565b6000612c6482612c6b565b9050919050565b6000612c7682612c7d565b9050919050565b6000612c8882612c2f565b9050919050565b82818337600083830152505050565b60005b83811015612cbc578082015181840152602081019050612ca1565b83811115612ccb576000848401525b50505050565b612cda82612dd8565b810181811067ffffffffffffffff82111715612cf957612cf8612da9565b5b80604052505050565b6000612d0d82612c4f565b91507fffffffffffffffffffffffffffffffffffffffffffffffffffffffffffffffff821415612d4057612d3f612d4b565b5b600182019050919050565b7f4e487b7100000000000000000000000000000000000000000000000000000000600052601160045260246000fd5b7f4e487b7100000000000000000000000000000000000000000000000000000000600052601260045260246000fd5b7f4e487b7100000000000000000000000000000000000000000000000000000000600052604160045260246000fd5b6000601f19601f8301169050919050565b7f76616c756520646f65736e2774206d6174636820726571756972656420616d6f60008201527f756e740000000000000000000000000000000000000000000000000000000000602082015250565b7f4e6f7420656e6f7567682073746f636b00000000000000000000000000000000600082015250565b7f4e6f7420656e6f7567682062616c616e63650000000000000000000000000000600082015250565b7f4e6f7420656e6f7567682076616c75652073656e740000000000000000000000600082015250565b612ebc81612c0b565b8114612ec757600080fd5b50565b612ed381612c1d565b8114612ede57600080fd5b50565b612eea81612c4f565b8114612ef557600080fd5b5056fea2646970667358221220a7f6465d05f6592902a9b7beaac0e6291d4fae125c4cafe66d1ea2252b0da6f164736f6c63430008020033",
  "linkReferences": {},
  "deployedLinkReferences": {}
}