{
  "_format": "hh-sol-artifact-1",
  "contractName": "Marketplace1155",
  "sourceName": "contracts/Marketplace1155.sol",
  "abi": [
    {
      "anonymous": false,
      "inputs": [
        {
          "indexed": true,
          "internalType": "address",
          "name": "tokenContract",
          "type": "address"
        },
        {
          "indexed": true,
          "internalType": "uint256",
          "name": "id",
          "type": "uint256"
        },
        {
          "indexed": true,
          "internalType": "address",
          "name": "owner",
          "type": "address"
        },
        {
          "indexed": false,
          "internalType": "uint256",
          "name": "amount",
          "type": "uint256"
        },
        {
          "indexed": false,
          "internalType": "uint256",
          "name": "price",
          "type": "uint256"
        }
      ],
      "name": "OnSale",
      "type": "event"
    },
    {
      "inputs": [
        {
          "internalType": "address",
          "name": "_contract",
          "type": "address"
        },
        {
          "internalType": "uint256[]",
          "name": "_ids",
          "type": "uint256[]"
        },
        {
          "internalType": "address payable",
          "name": "_owner",
          "type": "address"
        },
        {
          "internalType": "uint256[]",
          "name": "_amount",
          "type": "uint256[]"
        },
        {
          "internalType": "bytes",
          "name": "_data",
          "type": "bytes"
        }
      ],
      "name": "acceptBatchOffer",
      "outputs": [],
      "stateMutability": "payable",
      "type": "function"
    },
    {
      "inputs": [
        {
          "internalType": "address",
          "name": "_contract",
          "type": "address"
        },
        {
          "internalType": "uint256",
          "name": "_id",
          "type": "uint256"
        },
        {
          "internalType": "address payable",
          "name": "_owner",
          "type": "address"
        },
        {
          "internalType": "uint256",
          "name": "_amount",
          "type": "uint256"
        },
        {
          "internalType": "bytes",
          "name": "_data",
          "type": "bytes"
        }
      ],
      "name": "acceptOffer",
      "outputs": [],
      "stateMutability": "payable",
      "type": "function"
    },
    {
      "inputs": [
        {
          "internalType": "address",
          "name": "_contract",
          "type": "address"
        },
        {
          "internalType": "uint256[]",
          "name": "_ids",
          "type": "uint256[]"
        },
        {
          "internalType": "uint256[]",
          "name": "_amounts",
          "type": "uint256[]"
        },
        {
          "internalType": "uint256[]",
          "name": "_prices",
          "type": "uint256[]"
        }
      ],
      "name": "addBatchOffer",
      "outputs": [],
      "stateMutability": "nonpayable",
      "type": "function"
    },
    {
      "inputs": [
        {
          "internalType": "address",
          "name": "_contract",
          "type": "address"
        },
        {
          "internalType": "uint256",
          "name": "_id",
          "type": "uint256"
        },
        {
          "internalType": "uint256",
          "name": "_amount",
          "type": "uint256"
        },
        {
          "internalType": "uint256",
          "name": "_price",
          "type": "uint256"
        }
      ],
      "name": "addOffer",
      "outputs": [],
      "stateMutability": "nonpayable",
      "type": "function"
    },
    {
      "inputs": [
        {
          "internalType": "address",
          "name": "_contract",
          "type": "address"
        },
        {
          "internalType": "uint256[]",
          "name": "_ids",
          "type": "uint256[]"
        }
      ],
      "name": "cancelBatchOffer",
      "outputs": [],
      "stateMutability": "nonpayable",
      "type": "function"
    },
    {
      "inputs": [
        {
          "internalType": "address",
          "name": "_contract",
          "type": "address"
        },
        {
          "internalType": "uint256",
          "name": "_id",
          "type": "uint256"
        }
      ],
      "name": "cancelOffer",
      "outputs": [],
      "stateMutability": "nonpayable",
      "type": "function"
    },
    {
      "inputs": [
        {
          "internalType": "address",
          "name": "",
          "type": "address"
        },
        {
          "internalType": "uint256",
          "name": "",
          "type": "uint256"
        },
        {
          "internalType": "address",
          "name": "",
          "type": "address"
        }
      ],
      "name": "toSell",
      "outputs": [
        {
          "internalType": "uint256",
          "name": "amount",
          "type": "uint256"
        },
        {
          "internalType": "uint256",
          "name": "price",
          "type": "uint256"
        }
      ],
      "stateMutability": "view",
      "type": "function"
    }
  ],
  "bytecode": "0x608060405234801561001057600080fd5b5061249f806100206000396000f3fe6080604052600436106100705760003560e01c80638f7093511161004e5780638f709351146100d657806399f64bf8146100ff5780639cb010a91461013d578063d2108cfd1461016657610070565b8063058a56ac146100755780633166264a1461009e578063622882d1146100ba575b600080fd5b34801561008157600080fd5b5061009c600480360381019061009791906119e1565b61018f565b005b6100b860048036038101906100b39190611877565b610232565b005b6100d460048036038101906100cf9190611a6c565b6109e1565b005b3480156100e257600080fd5b506100fd60048036038101906100f89190611afb565b610ede565b005b34801561010b57600080fd5b5061012660048036038101906101219190611a1d565b6110d6565b604051610134929190611f18565b60405180910390f35b34801561014957600080fd5b50610164600480360381019061015f9190611823565b611114565b005b34801561017257600080fd5b5061018d60048036038101906101889190611936565b611217565b005b6000808373ffffffffffffffffffffffffffffffffffffffff1673ffffffffffffffffffffffffffffffffffffffff168152602001908152602001600020600082815260200190815260200160002060003373ffffffffffffffffffffffffffffffffffffffff1673ffffffffffffffffffffffffffffffffffffffff168152602001908152602001600020600080820160009055600182016000905550505050565b60008590506000855190506000808267ffffffffffffffff811115610280577f4e487b7100000000000000000000000000000000000000000000000000000000600052604160045260246000fd5b6040519080825280602002602001820160405280156102ae5781602001602082028036833780820191505090505b50905060005b838110156106235760008782815181106102f7577f4e487b7100000000000000000000000000000000000000000000000000000000600052603260045260246000fd5b60200260200101511161030957600080fd5b6000808b73ffffffffffffffffffffffffffffffffffffffff1673ffffffffffffffffffffffffffffffffffffffff16815260200190815260200160002060008a8381518110610382577f4e487b7100000000000000000000000000000000000000000000000000000000600052603260045260246000fd5b6020026020010151815260200190815260200160002060008973ffffffffffffffffffffffffffffffffffffffff1673ffffffffffffffffffffffffffffffffffffffff16815260200190815260200160002060000154878281518110610412577f4e487b7100000000000000000000000000000000000000000000000000000000600052603260045260246000fd5b6020026020010151111561045b576040517f08c379a000000000000000000000000000000000000000000000000000000000815260040161045290611e78565b60405180910390fd5b61057d878281518110610497577f4e487b7100000000000000000000000000000000000000000000000000000000600052603260045260246000fd5b60200260200101516000808d73ffffffffffffffffffffffffffffffffffffffff1673ffffffffffffffffffffffffffffffffffffffff16815260200190815260200160002060008c8581518110610518577f4e487b7100000000000000000000000000000000000000000000000000000000600052603260045260246000fd5b6020026020010151815260200190815260200160002060008b73ffffffffffffffffffffffffffffffffffffffff1673ffffffffffffffffffffffffffffffffffffffff168152602001908152602001600020600101546116bb90919063ffffffff16565b836105889190612029565b92508681815181106105c3577f4e487b7100000000000000000000000000000000000000000000000000000000600052603260045260246000fd5b6020026020010151828281518110610604577f4e487b7100000000000000000000000000000000000000000000000000000000600052603260045260246000fd5b602002602001018181525050808061061b90612204565b9150506102b4565b50813414610666576040517f08c379a000000000000000000000000000000000000000000000000000000000815260040161065d90611e58565b60405180910390fd5b60005b83811015610962578681815181106106aa577f4e487b7100000000000000000000000000000000000000000000000000000000600052603260045260246000fd5b60200260200101516000808c73ffffffffffffffffffffffffffffffffffffffff1673ffffffffffffffffffffffffffffffffffffffff16815260200190815260200160002060008b848151811061072b577f4e487b7100000000000000000000000000000000000000000000000000000000600052603260045260246000fd5b6020026020010151815260200190815260200160002060008a73ffffffffffffffffffffffffffffffffffffffff1673ffffffffffffffffffffffffffffffffffffffff168152602001908152602001600020600001600082825461079091906120d9565b9250508190555060008060008c73ffffffffffffffffffffffffffffffffffffffff1673ffffffffffffffffffffffffffffffffffffffff16815260200190815260200160002060008b8481518110610812577f4e487b7100000000000000000000000000000000000000000000000000000000600052603260045260246000fd5b6020026020010151815260200190815260200160002060008a73ffffffffffffffffffffffffffffffffffffffff1673ffffffffffffffffffffffffffffffffffffffff16815260200190815260200160002060000154141561094f576000808b73ffffffffffffffffffffffffffffffffffffffff1673ffffffffffffffffffffffffffffffffffffffff16815260200190815260200160002060008a83815181106108e8577f4e487b7100000000000000000000000000000000000000000000000000000000600052603260045260246000fd5b6020026020010151815260200190815260200160002060008973ffffffffffffffffffffffffffffffffffffffff1673ffffffffffffffffffffffffffffffffffffffff168152602001908152602001600020600080820160009055600182016000905550505b808061095a90612204565b915050610669565b508373ffffffffffffffffffffffffffffffffffffffff16632eb2c2d688338b858a6040518663ffffffff1660e01b81526004016109a4959493929190611d44565b600060405180830381600087803b1580156109be57600080fd5b505af11580156109d2573d6000803e3d6000fd5b50505050505050505050505050565b6000859050600083116109f357600080fd5b6000808773ffffffffffffffffffffffffffffffffffffffff1673ffffffffffffffffffffffffffffffffffffffff168152602001908152602001600020600086815260200190815260200160002060008573ffffffffffffffffffffffffffffffffffffffff1673ffffffffffffffffffffffffffffffffffffffff16815260200190815260200160002060000154831115610ac5576040517f08c379a0000000000000000000000000000000000000000000000000000000008152600401610abc90611e78565b60405180910390fd5b828173ffffffffffffffffffffffffffffffffffffffff1662fdd58e86886040518363ffffffff1660e01b8152600401610b00929190611e06565b60206040518083038186803b158015610b1857600080fd5b505afa158015610b2c573d6000803e3d6000fd5b505050506040513d601f19601f82011682018060405250810190610b509190611b5e565b1015610b91576040517f08c379a0000000000000000000000000000000000000000000000000000000008152600401610b8890611e98565b60405180910390fd5b610c33836000808973ffffffffffffffffffffffffffffffffffffffff1673ffffffffffffffffffffffffffffffffffffffff168152602001908152602001600020600088815260200190815260200160002060008773ffffffffffffffffffffffffffffffffffffffff1673ffffffffffffffffffffffffffffffffffffffff168152602001908152602001600020600101546116bb90919063ffffffff16565b3414610c3e57600080fd5b8073ffffffffffffffffffffffffffffffffffffffff1663f242432a85338887876040518663ffffffff1660e01b8152600401610c7f959493929190611dac565b600060405180830381600087803b158015610c9957600080fd5b505af1158015610cad573d6000803e3d6000fd5b505050508373ffffffffffffffffffffffffffffffffffffffff166108fc349081150290604051600060405180830381858888f19350505050158015610cf7573d6000803e3d6000fd5b50826000808873ffffffffffffffffffffffffffffffffffffffff1673ffffffffffffffffffffffffffffffffffffffff168152602001908152602001600020600087815260200190815260200160002060008673ffffffffffffffffffffffffffffffffffffffff1673ffffffffffffffffffffffffffffffffffffffff1681526020019081526020016000206000016000828254610d9791906120d9565b9250508190555060008060008873ffffffffffffffffffffffffffffffffffffffff1673ffffffffffffffffffffffffffffffffffffffff168152602001908152602001600020600087815260200190815260200160002060008673ffffffffffffffffffffffffffffffffffffffff1673ffffffffffffffffffffffffffffffffffffffff168152602001908152602001600020600001541415610ed6576000808773ffffffffffffffffffffffffffffffffffffffff1673ffffffffffffffffffffffffffffffffffffffff168152602001908152602001600020600086815260200190815260200160002060008573ffffffffffffffffffffffffffffffffffffffff1673ffffffffffffffffffffffffffffffffffffffff168152602001908152602001600020600080820160009055600182016000905550505b505050505050565b6000849050828173ffffffffffffffffffffffffffffffffffffffff1662fdd58e33876040518363ffffffff1660e01b8152600401610f1e929190611e2f565b60206040518083038186803b158015610f3657600080fd5b505afa158015610f4a573d6000803e3d6000fd5b505050506040513d601f19601f82011682018060405250810190610f6e9190611b5e565b1015610faf576040517f08c379a0000000000000000000000000000000000000000000000000000000008152600401610fa690611ef8565b60405180910390fd5b6040518060400160405280848152602001838152506000808773ffffffffffffffffffffffffffffffffffffffff1673ffffffffffffffffffffffffffffffffffffffff168152602001908152602001600020600086815260200190815260200160002060003373ffffffffffffffffffffffffffffffffffffffff1673ffffffffffffffffffffffffffffffffffffffff16815260200190815260200160002060008201518160000155602082015181600101559050503373ffffffffffffffffffffffffffffffffffffffff16848673ffffffffffffffffffffffffffffffffffffffff167f6a20fe4f4f0e9d8f0f40f57d4cb1a9624c1f0d6d2fd864f9a0537d0a087fad1686866040516110c7929190611f18565b60405180910390a45050505050565b600060205282600052604060002060205281600052604060002060205280600052604060002060009250925050508060000154908060010154905082565b60005b8151811015611212576000808473ffffffffffffffffffffffffffffffffffffffff1673ffffffffffffffffffffffffffffffffffffffff1681526020019081526020016000206000838381518110611199577f4e487b7100000000000000000000000000000000000000000000000000000000600052603260045260246000fd5b6020026020010151815260200190815260200160002060003373ffffffffffffffffffffffffffffffffffffffff1673ffffffffffffffffffffffffffffffffffffffff16815260200190815260200160002060008082016000905560018201600090555050808061120a90612204565b915050611117565b505050565b600084905060008451905080845114611265576040517f08c379a000000000000000000000000000000000000000000000000000000000815260040161125c90611ed8565b60405180910390fd5b808351146112a8576040517f08c379a000000000000000000000000000000000000000000000000000000000815260040161129f90611ed8565b60405180910390fd5b60005b818110156116b2578481815181106112ec577f4e487b7100000000000000000000000000000000000000000000000000000000600052603260045260246000fd5b60200260200101518373ffffffffffffffffffffffffffffffffffffffff1662fdd58e33898581518110611349577f4e487b7100000000000000000000000000000000000000000000000000000000600052603260045260246000fd5b60200260200101516040518363ffffffff1660e01b815260040161136e929190611e2f565b60206040518083038186803b15801561138657600080fd5b505afa15801561139a573d6000803e3d6000fd5b505050506040513d601f19601f820116820180604052508101906113be9190611b5e565b10156113ff576040517f08c379a00000000000000000000000000000000000000000000000000000000081526004016113f690611eb8565b60405180910390fd5b6040518060400160405280868381518110611443577f4e487b7100000000000000000000000000000000000000000000000000000000600052603260045260246000fd5b60200260200101518152602001858381518110611489577f4e487b7100000000000000000000000000000000000000000000000000000000600052603260045260246000fd5b60200260200101518152506000808973ffffffffffffffffffffffffffffffffffffffff1673ffffffffffffffffffffffffffffffffffffffff168152602001908152602001600020600088848151811061150d577f4e487b7100000000000000000000000000000000000000000000000000000000600052603260045260246000fd5b6020026020010151815260200190815260200160002060003373ffffffffffffffffffffffffffffffffffffffff1673ffffffffffffffffffffffffffffffffffffffff16815260200190815260200160002060008201518160000155602082015181600101559050503373ffffffffffffffffffffffffffffffffffffffff168682815181106115c7577f4e487b7100000000000000000000000000000000000000000000000000000000600052603260045260246000fd5b60200260200101518873ffffffffffffffffffffffffffffffffffffffff167f6a20fe4f4f0e9d8f0f40f57d4cb1a9624c1f0d6d2fd864f9a0537d0a087fad16888581518110611640577f4e487b7100000000000000000000000000000000000000000000000000000000600052603260045260246000fd5b6020026020010151888681518110611681577f4e487b7100000000000000000000000000000000000000000000000000000000600052603260045260246000fd5b6020026020010151604051611697929190611f18565b60405180910390a480806116aa90612204565b9150506112ab565b50505050505050565b600081836116c9919061207f565b905092915050565b60006116e46116df84611f66565b611f41565b9050808382526020820190508285602086028201111561170357600080fd5b60005b85811015611733578161171988826117f9565b845260208401935060208301925050600181019050611706565b5050509392505050565b600061175061174b84611f92565b611f41565b90508281526020810184848401111561176857600080fd5b611773848285612191565b509392505050565b60008135905061178a81612424565b92915050565b60008135905061179f8161243b565b92915050565b600082601f8301126117b657600080fd5b81356117c68482602086016116d1565b91505092915050565b600082601f8301126117e057600080fd5b81356117f084826020860161173d565b91505092915050565b60008135905061180881612452565b92915050565b60008151905061181d81612452565b92915050565b6000806040838503121561183657600080fd5b60006118448582860161177b565b925050602083013567ffffffffffffffff81111561186157600080fd5b61186d858286016117a5565b9150509250929050565b600080600080600060a0868803121561188f57600080fd5b600061189d8882890161177b565b955050602086013567ffffffffffffffff8111156118ba57600080fd5b6118c6888289016117a5565b94505060406118d788828901611790565b935050606086013567ffffffffffffffff8111156118f457600080fd5b611900888289016117a5565b925050608086013567ffffffffffffffff81111561191d57600080fd5b611929888289016117cf565b9150509295509295909350565b6000806000806080858703121561194c57600080fd5b600061195a8782880161177b565b945050602085013567ffffffffffffffff81111561197757600080fd5b611983878288016117a5565b935050604085013567ffffffffffffffff8111156119a057600080fd5b6119ac878288016117a5565b925050606085013567ffffffffffffffff8111156119c957600080fd5b6119d5878288016117a5565b91505092959194509250565b600080604083850312156119f457600080fd5b6000611a028582860161177b565b9250506020611a13858286016117f9565b9150509250929050565b600080600060608486031215611a3257600080fd5b6000611a408682870161177b565b9350506020611a51868287016117f9565b9250506040611a628682870161177b565b9150509250925092565b600080600080600060a08688031215611a8457600080fd5b6000611a928882890161177b565b9550506020611aa3888289016117f9565b9450506040611ab488828901611790565b9350506060611ac5888289016117f9565b925050608086013567ffffffffffffffff811115611ae257600080fd5b611aee888289016117cf565b9150509295509295909350565b60008060008060808587031215611b1157600080fd5b6000611b1f8782880161177b565b9450506020611b30878288016117f9565b9350506040611b41878288016117f9565b9250506060611b52878288016117f9565b91505092959194509250565b600060208284031215611b7057600080fd5b6000611b7e8482850161180e565b91505092915050565b6000611b938383611d26565b60208301905092915050565b611ba88161215b565b82525050565b611bb78161210d565b82525050565b6000611bc882611fd3565b611bd28185611ff6565b9350611bdd83611fc3565b8060005b83811015611c0e578151611bf58882611b87565b9750611c0083611fe9565b925050600181019050611be1565b5085935050505092915050565b6000611c2682611fde565b611c308185612007565b9350611c408185602086016121a0565b611c49816122ab565b840191505092915050565b6000611c61602383612018565b9150611c6c826122bc565b604082019050919050565b6000611c84601083612018565b9150611c8f8261230b565b602082019050919050565b6000611ca7603883612018565b9150611cb282612334565b604082019050919050565b6000611cca601483612018565b9150611cd582612383565b602082019050919050565b6000611ced603283612018565b9150611cf8826123ac565b604082019050919050565b6000611d10601183612018565b9150611d1b826123fb565b602082019050919050565b611d2f81612151565b82525050565b611d3e81612151565b82525050565b600060a082019050611d596000830188611b9f565b611d666020830187611bae565b8181036040830152611d788186611bbd565b90508181036060830152611d8c8185611bbd565b90508181036080830152611da08184611c1b565b90509695505050505050565b600060a082019050611dc16000830188611b9f565b611dce6020830187611bae565b611ddb6040830186611d35565b611de86060830185611d35565b8181036080830152611dfa8184611c1b565b90509695505050505050565b6000604082019050611e1b6000830185611b9f565b611e286020830184611d35565b9392505050565b6000604082019050611e446000830185611bae565b611e516020830184611d35565b9392505050565b60006020820190508181036000830152611e7181611c54565b9050919050565b60006020820190508181036000830152611e9181611c77565b9050919050565b60006020820190508181036000830152611eb181611c9a565b9050919050565b60006020820190508181036000830152611ed181611cbd565b9050919050565b60006020820190508181036000830152611ef181611ce0565b9050919050565b60006020820190508181036000830152611f1181611d03565b9050919050565b6000604082019050611f2d6000830185611d35565b611f3a6020830184611d35565b9392505050565b6000611f4b611f5c565b9050611f5782826121d3565b919050565b6000604051905090565b600067ffffffffffffffff821115611f8157611f8061227c565b5b602082029050602081019050919050565b600067ffffffffffffffff821115611fad57611fac61227c565b5b611fb6826122ab565b9050602081019050919050565b6000819050602082019050919050565b600081519050919050565b600081519050919050565b6000602082019050919050565b600082825260208201905092915050565b600082825260208201905092915050565b600082825260208201905092915050565b600061203482612151565b915061203f83612151565b9250827fffffffffffffffffffffffffffffffffffffffffffffffffffffffffffffffff038211156120745761207361224d565b5b828201905092915050565b600061208a82612151565b915061209583612151565b9250817fffffffffffffffffffffffffffffffffffffffffffffffffffffffffffffffff04831182151516156120ce576120cd61224d565b5b828202905092915050565b60006120e482612151565b91506120ef83612151565b9250828210156121025761210161224d565b5b828203905092915050565b600061211882612131565b9050919050565b600061212a82612131565b9050919050565b600073ffffffffffffffffffffffffffffffffffffffff82169050919050565b6000819050919050565b60006121668261216d565b9050919050565b60006121788261217f565b9050919050565b600061218a82612131565b9050919050565b82818337600083830152505050565b60005b838110156121be5780820151818401526020810190506121a3565b838111156121cd576000848401525b50505050565b6121dc826122ab565b810181811067ffffffffffffffff821117156121fb576121fa61227c565b5b80604052505050565b600061220f82612151565b91507fffffffffffffffffffffffffffffffffffffffffffffffffffffffffffffffff8214156122425761224161224d565b5b600182019050919050565b7f4e487b7100000000000000000000000000000000000000000000000000000000600052601160045260246000fd5b7f4e487b7100000000000000000000000000000000000000000000000000000000600052604160045260246000fd5b6000601f19601f8301169050919050565b7f76616c756520646f65736e2774206d6174636820726571756972656420616d6f60008201527f756e740000000000000000000000000000000000000000000000000000000000602082015250565b7f4e6f7420656e6f7567682073746f636b00000000000000000000000000000000600082015250565b7f53656c6c6572206e6f206c6f6e676572206f776e7320656e6f75676820746f6b60008201527f656e7320666f722074686973207472616e73616374696f6e0000000000000000602082015250565b7f496e73756666696369656e742062616c616e6365000000000000000000000000600082015250565b7f5468652073697a65206f662069647320616e6420616e6420616d6f756e74732060008201527f73686f756c64206265207468652073616d650000000000000000000000000000602082015250565b7f4e6f7420656e6f75676820746f6b656e73000000000000000000000000000000600082015250565b61242d8161210d565b811461243857600080fd5b50565b6124448161211f565b811461244f57600080fd5b50565b61245b81612151565b811461246657600080fd5b5056fea2646970667358221220b699d30f63dee15170190c37d355d05573f7441a622ce2173d3d7d93b42eb4cb64736f6c63430008020033",
  "linkReferences": {},
  "deployedLinkReferences": {}
}