{
  "_format": "hh-sol-artifact-1",
  "contractName": "Quotes",
  "sourceName": "contracts/Quotes.sol",
  "abi": [
    {
      "inputs": [],
      "stateMutability": "nonpayable",
      "type": "constructor"
    },
    {
      "anonymous": false,
      "inputs": [
        {
          "indexed": true,
          "internalType": "address",
          "name": "owner",
          "type": "address"
        },
        {
          "indexed": true,
          "internalType": "address",
          "name": "approved",
          "type": "address"
        },
        {
          "indexed": true,
          "internalType": "uint256",
          "name": "tokenId",
          "type": "uint256"
        }
      ],
      "name": "Approval",
      "type": "event"
    },
    {
      "anonymous": false,
      "inputs": [
        {
          "indexed": true,
          "internalType": "address",
          "name": "owner",
          "type": "address"
        },
        {
          "indexed": true,
          "internalType": "address",
          "name": "operator",
          "type": "address"
        },
        {
          "indexed": false,
          "internalType": "bool",
          "name": "approved",
          "type": "bool"
        }
      ],
      "name": "ApprovalForAll",
      "type": "event"
    },
    {
      "anonymous": false,
      "inputs": [
        {
          "indexed": true,
          "internalType": "address",
          "name": "previousOwner",
          "type": "address"
        },
        {
          "indexed": true,
          "internalType": "address",
          "name": "newOwner",
          "type": "address"
        }
      ],
      "name": "OwnershipTransferred",
      "type": "event"
    },
    {
      "anonymous": false,
      "inputs": [
        {
          "indexed": true,
          "internalType": "address",
          "name": "from",
          "type": "address"
        },
        {
          "indexed": true,
          "internalType": "address",
          "name": "to",
          "type": "address"
        },
        {
          "indexed": true,
          "internalType": "uint256",
          "name": "tokenId",
          "type": "uint256"
        }
      ],
      "name": "Transfer",
      "type": "event"
    },
    {
      "inputs": [
        {
          "internalType": "address",
          "name": "to",
          "type": "address"
        },
        {
          "internalType": "uint256",
          "name": "tokenId",
          "type": "uint256"
        }
      ],
      "name": "approve",
      "outputs": [],
      "stateMutability": "nonpayable",
      "type": "function"
    },
    {
      "inputs": [
        {
          "internalType": "address",
          "name": "owner",
          "type": "address"
        }
      ],
      "name": "balanceOf",
      "outputs": [
        {
          "internalType": "uint256",
          "name": "",
          "type": "uint256"
        }
      ],
      "stateMutability": "view",
      "type": "function"
    },
    {
      "inputs": [
        {
          "internalType": "uint256",
          "name": "_tokenId",
          "type": "uint256"
        }
      ],
      "name": "buyFromMarket",
      "outputs": [],
      "stateMutability": "payable",
      "type": "function"
    },
    {
      "inputs": [
        {
          "internalType": "uint256",
          "name": "tokenId",
          "type": "uint256"
        }
      ],
      "name": "getApproved",
      "outputs": [
        {
          "internalType": "address",
          "name": "",
          "type": "address"
        }
      ],
      "stateMutability": "view",
      "type": "function"
    },
    {
      "inputs": [
        {
          "internalType": "address",
          "name": "owner",
          "type": "address"
        },
        {
          "internalType": "address",
          "name": "operator",
          "type": "address"
        }
      ],
      "name": "isApprovedForAll",
      "outputs": [
        {
          "internalType": "bool",
          "name": "",
          "type": "bool"
        }
      ],
      "stateMutability": "view",
      "type": "function"
    },
    {
      "inputs": [],
      "name": "name",
      "outputs": [
        {
          "internalType": "string",
          "name": "",
          "type": "string"
        }
      ],
      "stateMutability": "view",
      "type": "function"
    },
    {
      "inputs": [],
      "name": "owner",
      "outputs": [
        {
          "internalType": "address",
          "name": "",
          "type": "address"
        }
      ],
      "stateMutability": "view",
      "type": "function"
    },
    {
      "inputs": [
        {
          "internalType": "uint256",
          "name": "tokenId",
          "type": "uint256"
        }
      ],
      "name": "ownerOf",
      "outputs": [
        {
          "internalType": "address",
          "name": "",
          "type": "address"
        }
      ],
      "stateMutability": "view",
      "type": "function"
    },
    {
      "inputs": [
        {
          "internalType": "uint256",
          "name": "",
          "type": "uint256"
        }
      ],
      "name": "price",
      "outputs": [
        {
          "internalType": "uint256",
          "name": "",
          "type": "uint256"
        }
      ],
      "stateMutability": "view",
      "type": "function"
    },
    {
      "inputs": [],
      "name": "renounceOwnership",
      "outputs": [],
      "stateMutability": "nonpayable",
      "type": "function"
    },
    {
      "inputs": [
        {
          "internalType": "address",
          "name": "to",
          "type": "address"
        },
        {
          "internalType": "uint256",
          "name": "tokenId",
          "type": "uint256"
        }
      ],
      "name": "safeMint",
      "outputs": [],
      "stateMutability": "nonpayable",
      "type": "function"
    },
    {
      "inputs": [
        {
          "internalType": "address",
          "name": "from",
          "type": "address"
        },
        {
          "internalType": "address",
          "name": "to",
          "type": "address"
        },
        {
          "internalType": "uint256",
          "name": "tokenId",
          "type": "uint256"
        }
      ],
      "name": "safeTransferFrom",
      "outputs": [],
      "stateMutability": "nonpayable",
      "type": "function"
    },
    {
      "inputs": [
        {
          "internalType": "address",
          "name": "from",
          "type": "address"
        },
        {
          "internalType": "address",
          "name": "to",
          "type": "address"
        },
        {
          "internalType": "uint256",
          "name": "tokenId",
          "type": "uint256"
        },
        {
          "internalType": "bytes",
          "name": "_data",
          "type": "bytes"
        }
      ],
      "name": "safeTransferFrom",
      "outputs": [],
      "stateMutability": "nonpayable",
      "type": "function"
    },
    {
      "inputs": [
        {
          "internalType": "address",
          "name": "operator",
          "type": "address"
        },
        {
          "internalType": "bool",
          "name": "approved",
          "type": "bool"
        }
      ],
      "name": "setApprovalForAll",
      "outputs": [],
      "stateMutability": "nonpayable",
      "type": "function"
    },
    {
      "inputs": [
        {
          "internalType": "bytes4",
          "name": "interfaceId",
          "type": "bytes4"
        }
      ],
      "name": "supportsInterface",
      "outputs": [
        {
          "internalType": "bool",
          "name": "",
          "type": "bool"
        }
      ],
      "stateMutability": "view",
      "type": "function"
    },
    {
      "inputs": [],
      "name": "symbol",
      "outputs": [
        {
          "internalType": "string",
          "name": "",
          "type": "string"
        }
      ],
      "stateMutability": "view",
      "type": "function"
    },
    {
      "inputs": [
        {
          "internalType": "uint256",
          "name": "_tokenId",
          "type": "uint256"
        },
        {
          "internalType": "uint256",
          "name": "_priceAsked",
          "type": "uint256"
        }
      ],
      "name": "toMarket",
      "outputs": [],
      "stateMutability": "nonpayable",
      "type": "function"
    },
    {
      "inputs": [
        {
          "internalType": "uint256",
          "name": "index",
          "type": "uint256"
        }
      ],
      "name": "tokenByIndex",
      "outputs": [
        {
          "internalType": "uint256",
          "name": "",
          "type": "uint256"
        }
      ],
      "stateMutability": "view",
      "type": "function"
    },
    {
      "inputs": [
        {
          "internalType": "address",
          "name": "owner",
          "type": "address"
        },
        {
          "internalType": "uint256",
          "name": "index",
          "type": "uint256"
        }
      ],
      "name": "tokenOfOwnerByIndex",
      "outputs": [
        {
          "internalType": "uint256",
          "name": "",
          "type": "uint256"
        }
      ],
      "stateMutability": "view",
      "type": "function"
    },
    {
      "inputs": [
        {
          "internalType": "uint256",
          "name": "tokenId",
          "type": "uint256"
        }
      ],
      "name": "tokenURI",
      "outputs": [
        {
          "internalType": "string",
          "name": "",
          "type": "string"
        }
      ],
      "stateMutability": "view",
      "type": "function"
    },
    {
      "inputs": [],
      "name": "totalSupply",
      "outputs": [
        {
          "internalType": "uint256",
          "name": "",
          "type": "uint256"
        }
      ],
      "stateMutability": "view",
      "type": "function"
    },
    {
      "inputs": [
        {
          "internalType": "address",
          "name": "from",
          "type": "address"
        },
        {
          "internalType": "address",
          "name": "to",
          "type": "address"
        },
        {
          "internalType": "uint256",
          "name": "tokenId",
          "type": "uint256"
        }
      ],
      "name": "transferFrom",
      "outputs": [],
      "stateMutability": "nonpayable",
      "type": "function"
    },
    {
      "inputs": [
        {
          "internalType": "address",
          "name": "newOwner",
          "type": "address"
        }
      ],
      "name": "transferOwnership",
      "outputs": [],
      "stateMutability": "nonpayable",
      "type": "function"
    }
  ],
  "bytecode": "0x60806040523480156200001157600080fd5b506040518060400160405280600781526020017f4d79546f6b656e000000000000000000000000000000000000000000000000008152506040518060400160405280600381526020017f4d544b0000000000000000000000000000000000000000000000000000000000815250816000908051906020019062000096929190620001a6565b508060019080519060200190620000af929190620001a6565b505050620000d2620000c6620000d860201b60201c565b620000e060201b60201c565b620002bb565b600033905090565b6000600a60009054906101000a900473ffffffffffffffffffffffffffffffffffffffff16905081600a60006101000a81548173ffffffffffffffffffffffffffffffffffffffff021916908373ffffffffffffffffffffffffffffffffffffffff1602179055508173ffffffffffffffffffffffffffffffffffffffff168173ffffffffffffffffffffffffffffffffffffffff167f8be0079c531659141344cd1fd0a4f28419497f9722a3daafe3b4186f6b6457e060405160405180910390a35050565b828054620001b49062000256565b90600052602060002090601f016020900481019282620001d8576000855562000224565b82601f10620001f357805160ff191683800117855562000224565b8280016001018555821562000224579182015b828111156200022357825182559160200191906001019062000206565b5b50905062000233919062000237565b5090565b5b808211156200025257600081600090555060010162000238565b5090565b600060028204905060018216806200026f57607f821691505b602082108114156200028657620002856200028c565b5b50919050565b7f4e487b7100000000000000000000000000000000000000000000000000000000600052602260045260246000fd5b61369480620002cb6000396000f3fe6080604052600436106101405760003560e01c80636352211e116100b6578063a22cb4651161006f578063a22cb46514610473578063aba8241d1461049c578063b88d4fde146104c5578063c87b56dd146104ee578063e985e9c51461052b578063f2fde38b1461056857610140565b80636352211e1461036357806370a08231146103a0578063715018a6146103dd5780638da5cb5b146103f457806395d89b411461041f578063a14481941461044a57610140565b806321f1200e1161010857806321f1200e1461023e57806323b872dd1461025a57806326a49e37146102835780632f745c59146102c057806342842e0e146102fd5780634f6ccce71461032657610140565b806301ffc9a71461014557806306fdde0314610182578063081812fc146101ad578063095ea7b3146101ea57806318160ddd14610213575b600080fd5b34801561015157600080fd5b5061016c60048036038101906101679190612601565b610591565b6040516101799190612ac0565b60405180910390f35b34801561018e57600080fd5b506101976105a3565b6040516101a49190612adb565b60405180910390f35b3480156101b957600080fd5b506101d460048036038101906101cf9190612653565b610635565b6040516101e19190612a22565b60405180910390f35b3480156101f657600080fd5b50610211600480360381019061020c91906125c5565b6106ba565b005b34801561021f57600080fd5b506102286107d2565b6040516102359190612d3d565b60405180910390f35b61025860048036038101906102539190612653565b6107df565b005b34801561026657600080fd5b50610281600480360381019061027c91906124bf565b61088d565b005b34801561028f57600080fd5b506102aa60048036038101906102a59190612653565b6108ed565b6040516102b79190612d3d565b60405180910390f35b3480156102cc57600080fd5b506102e760048036038101906102e291906125c5565b610905565b6040516102f49190612d3d565b60405180910390f35b34801561030957600080fd5b50610324600480360381019061031f91906124bf565b6109aa565b005b34801561033257600080fd5b5061034d60048036038101906103489190612653565b6109ca565b60405161035a9190612d3d565b60405180910390f35b34801561036f57600080fd5b5061038a60048036038101906103859190612653565b610a61565b6040516103979190612a22565b60405180910390f35b3480156103ac57600080fd5b506103c760048036038101906103c2919061245a565b610b13565b6040516103d49190612d3d565b60405180910390f35b3480156103e957600080fd5b506103f2610bcb565b005b34801561040057600080fd5b50610409610c53565b6040516104169190612a22565b60405180910390f35b34801561042b57600080fd5b50610434610c7d565b6040516104419190612adb565b60405180910390f35b34801561045657600080fd5b50610471600480360381019061046c91906125c5565b610d0f565b005b34801561047f57600080fd5b5061049a60048036038101906104959190612589565b610d99565b005b3480156104a857600080fd5b506104c360048036038101906104be919061267c565b610daf565b005b3480156104d157600080fd5b506104ec60048036038101906104e7919061250e565b610de2565b005b3480156104fa57600080fd5b5061051560048036038101906105109190612653565b610e44565b6040516105229190612adb565b60405180910390f35b34801561053757600080fd5b50610552600480360381019061054d9190612483565b610eeb565b60405161055f9190612ac0565b60405180910390f35b34801561057457600080fd5b5061058f600480360381019061058a919061245a565b610f7f565b005b600061059c82611077565b9050919050565b6060600080546105b290612f62565b80601f01602080910402602001604051908101604052809291908181526020018280546105de90612f62565b801561062b5780601f106106005761010080835404028352916020019161062b565b820191906000526020600020905b81548152906001019060200180831161060e57829003601f168201915b5050505050905090565b6000610640826110f1565b61067f576040517f08c379a000000000000000000000000000000000000000000000000000000000815260040161067690612c5d565b60405180910390fd5b6004600083815260200190815260200160002060009054906101000a900473ffffffffffffffffffffffffffffffffffffffff169050919050565b60006106c582610a61565b90508073ffffffffffffffffffffffffffffffffffffffff168373ffffffffffffffffffffffffffffffffffffffff161415610736576040517f08c379a000000000000000000000000000000000000000000000000000000000815260040161072d90612cdd565b60405180910390fd5b8073ffffffffffffffffffffffffffffffffffffffff1661075561115d565b73ffffffffffffffffffffffffffffffffffffffff16148061078457506107838161077e61115d565b610eeb565b5b6107c3576040517f08c379a00000000000000000000000000000000000000000000000000000000081526004016107ba90612bdd565b60405180910390fd5b6107cd8383611165565b505050565b6000600880549050905090565b6000309050600b600083815260200190815260200160002054341461080357600080fd5b3073ffffffffffffffffffffffffffffffffffffffff166323b872dd8233856040518463ffffffff1660e01b815260040161084093929190612a3d565b600060405180830381600087803b15801561085a57600080fd5b505af115801561086e573d6000803e3d6000fd5b50505050600b6000838152602001908152602001600020600090555050565b61089e61089861115d565b8261121e565b6108dd576040517f08c379a00000000000000000000000000000000000000000000000000000000081526004016108d490612cfd565b60405180910390fd5b6108e88383836112fc565b505050565b600b6020528060005260406000206000915090505481565b600061091083610b13565b8210610951576040517f08c379a000000000000000000000000000000000000000000000000000000000815260040161094890612afd565b60405180910390fd5b600660008473ffffffffffffffffffffffffffffffffffffffff1673ffffffffffffffffffffffffffffffffffffffff168152602001908152602001600020600083815260200190815260200160002054905092915050565b6109c583838360405180602001604052806000815250610de2565b505050565b60006109d46107d2565b8210610a15576040517f08c379a0000000000000000000000000000000000000000000000000000000008152600401610a0c90612d1d565b60405180910390fd5b60088281548110610a4f577f4e487b7100000000000000000000000000000000000000000000000000000000600052603260045260246000fd5b90600052602060002001549050919050565b6000806002600084815260200190815260200160002060009054906101000a900473ffffffffffffffffffffffffffffffffffffffff169050600073ffffffffffffffffffffffffffffffffffffffff168173ffffffffffffffffffffffffffffffffffffffff161415610b0a576040517f08c379a0000000000000000000000000000000000000000000000000000000008152600401610b0190612c1d565b60405180910390fd5b80915050919050565b60008073ffffffffffffffffffffffffffffffffffffffff168273ffffffffffffffffffffffffffffffffffffffff161415610b84576040517f08c379a0000000000000000000000000000000000000000000000000000000008152600401610b7b90612bfd565b60405180910390fd5b600360008373ffffffffffffffffffffffffffffffffffffffff1673ffffffffffffffffffffffffffffffffffffffff168152602001908152602001600020549050919050565b610bd361115d565b73ffffffffffffffffffffffffffffffffffffffff16610bf1610c53565b73ffffffffffffffffffffffffffffffffffffffff1614610c47576040517f08c379a0000000000000000000000000000000000000000000000000000000008152600401610c3e90612c7d565b60405180910390fd5b610c516000611558565b565b6000600a60009054906101000a900473ffffffffffffffffffffffffffffffffffffffff16905090565b606060018054610c8c90612f62565b80601f0160208091040260200160405190810160405280929190818152602001828054610cb890612f62565b8015610d055780601f10610cda57610100808354040283529160200191610d05565b820191906000526020600020905b815481529060010190602001808311610ce857829003601f168201915b5050505050905090565b610d1761115d565b73ffffffffffffffffffffffffffffffffffffffff16610d35610c53565b73ffffffffffffffffffffffffffffffffffffffff1614610d8b576040517f08c379a0000000000000000000000000000000000000000000000000000000008152600401610d8290612c7d565b60405180910390fd5b610d95828261161e565b5050565b610dab610da461115d565b838361163c565b5050565b6000339050600030905082600b600086815260200190815260200160002081905550610ddc82828661088d565b50505050565b610df3610ded61115d565b8361121e565b610e32576040517f08c379a0000000000000000000000000000000000000000000000000000000008152600401610e2990612cfd565b60405180910390fd5b610e3e848484846117a9565b50505050565b6060610e4f826110f1565b610e8e576040517f08c379a0000000000000000000000000000000000000000000000000000000008152600401610e8590612cbd565b60405180910390fd5b6000610e98611805565b90506000815111610eb85760405180602001604052806000815250610ee3565b80610ec28461181c565b604051602001610ed39291906129fe565b6040516020818303038152906040525b915050919050565b6000600560008473ffffffffffffffffffffffffffffffffffffffff1673ffffffffffffffffffffffffffffffffffffffff16815260200190815260200160002060008373ffffffffffffffffffffffffffffffffffffffff1673ffffffffffffffffffffffffffffffffffffffff16815260200190815260200160002060009054906101000a900460ff16905092915050565b610f8761115d565b73ffffffffffffffffffffffffffffffffffffffff16610fa5610c53565b73ffffffffffffffffffffffffffffffffffffffff1614610ffb576040517f08c379a0000000000000000000000000000000000000000000000000000000008152600401610ff290612c7d565b60405180910390fd5b600073ffffffffffffffffffffffffffffffffffffffff168173ffffffffffffffffffffffffffffffffffffffff16141561106b576040517f08c379a000000000000000000000000000000000000000000000000000000000815260040161106290612b3d565b60405180910390fd5b61107481611558565b50565b60007f780e9d63000000000000000000000000000000000000000000000000000000007bffffffffffffffffffffffffffffffffffffffffffffffffffffffff1916827bffffffffffffffffffffffffffffffffffffffffffffffffffffffff191614806110ea57506110e9826119c9565b5b9050919050565b60008073ffffffffffffffffffffffffffffffffffffffff166002600084815260200190815260200160002060009054906101000a900473ffffffffffffffffffffffffffffffffffffffff1673ffffffffffffffffffffffffffffffffffffffff1614159050919050565b600033905090565b816004600083815260200190815260200160002060006101000a81548173ffffffffffffffffffffffffffffffffffffffff021916908373ffffffffffffffffffffffffffffffffffffffff160217905550808273ffffffffffffffffffffffffffffffffffffffff166111d883610a61565b73ffffffffffffffffffffffffffffffffffffffff167f8c5be1e5ebec7d5bd14f71427d1e84f3dd0314c0f7b2291e5b200ac8c7c3b92560405160405180910390a45050565b6000611229826110f1565b611268576040517f08c379a000000000000000000000000000000000000000000000000000000000815260040161125f90612bbd565b60405180910390fd5b600061127383610a61565b90508073ffffffffffffffffffffffffffffffffffffffff168473ffffffffffffffffffffffffffffffffffffffff1614806112e257508373ffffffffffffffffffffffffffffffffffffffff166112ca84610635565b73ffffffffffffffffffffffffffffffffffffffff16145b806112f357506112f28185610eeb565b5b91505092915050565b8273ffffffffffffffffffffffffffffffffffffffff1661131c82610a61565b73ffffffffffffffffffffffffffffffffffffffff1614611372576040517f08c379a000000000000000000000000000000000000000000000000000000000815260040161136990612c9d565b60405180910390fd5b600073ffffffffffffffffffffffffffffffffffffffff168273ffffffffffffffffffffffffffffffffffffffff1614156113e2576040517f08c379a00000000000000000000000000000000000000000000000000000000081526004016113d990612b7d565b60405180910390fd5b6113ed838383611aab565b6113f8600082611165565b6001600360008573ffffffffffffffffffffffffffffffffffffffff1673ffffffffffffffffffffffffffffffffffffffff16815260200190815260200160002060008282546114489190612e78565b925050819055506001600360008473ffffffffffffffffffffffffffffffffffffffff1673ffffffffffffffffffffffffffffffffffffffff168152602001908152602001600020600082825461149f9190612df1565b92505081905550816002600083815260200190815260200160002060006101000a81548173ffffffffffffffffffffffffffffffffffffffff021916908373ffffffffffffffffffffffffffffffffffffffff160217905550808273ffffffffffffffffffffffffffffffffffffffff168473ffffffffffffffffffffffffffffffffffffffff167fddf252ad1be2c89b69c2b068fc378daa952ba7f163c4a11628f55a4df523b3ef60405160405180910390a4505050565b6000600a60009054906101000a900473ffffffffffffffffffffffffffffffffffffffff16905081600a60006101000a81548173ffffffffffffffffffffffffffffffffffffffff021916908373ffffffffffffffffffffffffffffffffffffffff1602179055508173ffffffffffffffffffffffffffffffffffffffff168173ffffffffffffffffffffffffffffffffffffffff167f8be0079c531659141344cd1fd0a4f28419497f9722a3daafe3b4186f6b6457e060405160405180910390a35050565b611638828260405180602001604052806000815250611abb565b5050565b8173ffffffffffffffffffffffffffffffffffffffff168373ffffffffffffffffffffffffffffffffffffffff1614156116ab576040517f08c379a00000000000000000000000000000000000000000000000000000000081526004016116a290612b9d565b60405180910390fd5b80600560008573ffffffffffffffffffffffffffffffffffffffff1673ffffffffffffffffffffffffffffffffffffffff16815260200190815260200160002060008473ffffffffffffffffffffffffffffffffffffffff1673ffffffffffffffffffffffffffffffffffffffff16815260200190815260200160002060006101000a81548160ff0219169083151502179055508173ffffffffffffffffffffffffffffffffffffffff168373ffffffffffffffffffffffffffffffffffffffff167f17307eab39ab6107e8899845ad3d59bd9653f200f220920489ca2b5937696c318360405161179c9190612ac0565b60405180910390a3505050565b6117b48484846112fc565b6117c084848484611b16565b6117ff576040517f08c379a00000000000000000000000000000000000000000000000000000000081526004016117f690612b1d565b60405180910390fd5b50505050565b606060405180602001604052806000815250905090565b60606000821415611864576040518060400160405280600181526020017f300000000000000000000000000000000000000000000000000000000000000081525090506119c4565b600082905060005b6000821461189657808061187f90612fc5565b915050600a8261188f9190612e47565b915061186c565b60008167ffffffffffffffff8111156118d8577f4e487b7100000000000000000000000000000000000000000000000000000000600052604160045260246000fd5b6040519080825280601f01601f19166020018201604052801561190a5781602001600182028036833780820191505090505b5090505b600085146119bd576001826119239190612e78565b9150600a85611932919061300e565b603061193e9190612df1565b60f81b81838151811061197a577f4e487b7100000000000000000000000000000000000000000000000000000000600052603260045260246000fd5b60200101907effffffffffffffffffffffffffffffffffffffffffffffffffffffffffffff1916908160001a905350600a856119b69190612e47565b945061190e565b8093505050505b919050565b60007f80ac58cd000000000000000000000000000000000000000000000000000000007bffffffffffffffffffffffffffffffffffffffffffffffffffffffff1916827bffffffffffffffffffffffffffffffffffffffffffffffffffffffff19161480611a9457507f5b5e139f000000000000000000000000000000000000000000000000000000007bffffffffffffffffffffffffffffffffffffffffffffffffffffffff1916827bffffffffffffffffffffffffffffffffffffffffffffffffffffffff1916145b80611aa45750611aa382611cad565b5b9050919050565b611ab6838383611d17565b505050565b611ac58383611e2b565b611ad26000848484611b16565b611b11576040517f08c379a0000000000000000000000000000000000000000000000000000000008152600401611b0890612b1d565b60405180910390fd5b505050565b6000611b378473ffffffffffffffffffffffffffffffffffffffff16611ff9565b15611ca0578373ffffffffffffffffffffffffffffffffffffffff1663150b7a02611b6061115d565b8786866040518563ffffffff1660e01b8152600401611b829493929190612a74565b602060405180830381600087803b158015611b9c57600080fd5b505af1925050508015611bcd57506040513d601f19601f82011682018060405250810190611bca919061262a565b60015b611c50573d8060008114611bfd576040519150601f19603f3d011682016040523d82523d6000602084013e611c02565b606091505b50600081511415611c48576040517f08c379a0000000000000000000000000000000000000000000000000000000008152600401611c3f90612b1d565b60405180910390fd5b805181602001fd5b63150b7a0260e01b7bffffffffffffffffffffffffffffffffffffffffffffffffffffffff1916817bffffffffffffffffffffffffffffffffffffffffffffffffffffffff191614915050611ca5565b600190505b949350505050565b60007f01ffc9a7000000000000000000000000000000000000000000000000000000007bffffffffffffffffffffffffffffffffffffffffffffffffffffffff1916827bffffffffffffffffffffffffffffffffffffffffffffffffffffffff1916149050919050565b611d2283838361200c565b600073ffffffffffffffffffffffffffffffffffffffff168373ffffffffffffffffffffffffffffffffffffffff161415611d6557611d6081612011565b611da4565b8173ffffffffffffffffffffffffffffffffffffffff168373ffffffffffffffffffffffffffffffffffffffff1614611da357611da2838261205a565b5b5b600073ffffffffffffffffffffffffffffffffffffffff168273ffffffffffffffffffffffffffffffffffffffff161415611de757611de2816121c7565b611e26565b8273ffffffffffffffffffffffffffffffffffffffff168273ffffffffffffffffffffffffffffffffffffffff1614611e2557611e24828261230a565b5b5b505050565b600073ffffffffffffffffffffffffffffffffffffffff168273ffffffffffffffffffffffffffffffffffffffff161415611e9b576040517f08c379a0000000000000000000000000000000000000000000000000000000008152600401611e9290612c3d565b60405180910390fd5b611ea4816110f1565b15611ee4576040517f08c379a0000000000000000000000000000000000000000000000000000000008152600401611edb90612b5d565b60405180910390fd5b611ef060008383611aab565b6001600360008473ffffffffffffffffffffffffffffffffffffffff1673ffffffffffffffffffffffffffffffffffffffff1681526020019081526020016000206000828254611f409190612df1565b92505081905550816002600083815260200190815260200160002060006101000a81548173ffffffffffffffffffffffffffffffffffffffff021916908373ffffffffffffffffffffffffffffffffffffffff160217905550808273ffffffffffffffffffffffffffffffffffffffff16600073ffffffffffffffffffffffffffffffffffffffff167fddf252ad1be2c89b69c2b068fc378daa952ba7f163c4a11628f55a4df523b3ef60405160405180910390a45050565b600080823b905060008111915050919050565b505050565b6008805490506009600083815260200190815260200160002081905550600881908060018154018082558091505060019003906000526020600020016000909190919091505550565b6000600161206784610b13565b6120719190612e78565b9050600060076000848152602001908152602001600020549050818114612156576000600660008673ffffffffffffffffffffffffffffffffffffffff1673ffffffffffffffffffffffffffffffffffffffff168152602001908152602001600020600084815260200190815260200160002054905080600660008773ffffffffffffffffffffffffffffffffffffffff1673ffffffffffffffffffffffffffffffffffffffff168152602001908152602001600020600084815260200190815260200160002081905550816007600083815260200190815260200160002081905550505b6007600084815260200190815260200160002060009055600660008573ffffffffffffffffffffffffffffffffffffffff1673ffffffffffffffffffffffffffffffffffffffff16815260200190815260200160002060008381526020019081526020016000206000905550505050565b600060016008805490506121db9190612e78565b9050600060096000848152602001908152602001600020549050600060088381548110612231577f4e487b7100000000000000000000000000000000000000000000000000000000600052603260045260246000fd5b906000526020600020015490508060088381548110612279577f4e487b7100000000000000000000000000000000000000000000000000000000600052603260045260246000fd5b9060005260206000200181905550816009600083815260200190815260200160002081905550600960008581526020019081526020016000206000905560088054806122ee577f4e487b7100000000000000000000000000000000000000000000000000000000600052603160045260246000fd5b6001900381819060005260206000200160009055905550505050565b600061231583610b13565b905081600660008573ffffffffffffffffffffffffffffffffffffffff1673ffffffffffffffffffffffffffffffffffffffff168152602001908152602001600020600083815260200190815260200160002081905550806007600084815260200190815260200160002081905550505050565b600061239c61239784612d7d565b612d58565b9050828152602081018484840111156123b457600080fd5b6123bf848285612f20565b509392505050565b6000813590506123d681613602565b92915050565b6000813590506123eb81613619565b92915050565b60008135905061240081613630565b92915050565b60008151905061241581613630565b92915050565b600082601f83011261242c57600080fd5b813561243c848260208601612389565b91505092915050565b60008135905061245481613647565b92915050565b60006020828403121561246c57600080fd5b600061247a848285016123c7565b91505092915050565b6000806040838503121561249657600080fd5b60006124a4858286016123c7565b92505060206124b5858286016123c7565b9150509250929050565b6000806000606084860312156124d457600080fd5b60006124e2868287016123c7565b93505060206124f3868287016123c7565b925050604061250486828701612445565b9150509250925092565b6000806000806080858703121561252457600080fd5b6000612532878288016123c7565b9450506020612543878288016123c7565b935050604061255487828801612445565b925050606085013567ffffffffffffffff81111561257157600080fd5b61257d8782880161241b565b91505092959194509250565b6000806040838503121561259c57600080fd5b60006125aa858286016123c7565b92505060206125bb858286016123dc565b9150509250929050565b600080604083850312156125d857600080fd5b60006125e6858286016123c7565b92505060206125f785828601612445565b9150509250929050565b60006020828403121561261357600080fd5b6000612621848285016123f1565b91505092915050565b60006020828403121561263c57600080fd5b600061264a84828501612406565b91505092915050565b60006020828403121561266557600080fd5b600061267384828501612445565b91505092915050565b6000806040838503121561268f57600080fd5b600061269d85828601612445565b92505060206126ae85828601612445565b9150509250929050565b6126c181612eac565b82525050565b6126d081612ebe565b82525050565b60006126e182612dae565b6126eb8185612dc4565b93506126fb818560208601612f2f565b612704816130fb565b840191505092915050565b600061271a82612db9565b6127248185612dd5565b9350612734818560208601612f2f565b61273d816130fb565b840191505092915050565b600061275382612db9565b61275d8185612de6565b935061276d818560208601612f2f565b80840191505092915050565b6000612786602b83612dd5565b91506127918261310c565b604082019050919050565b60006127a9603283612dd5565b91506127b48261315b565b604082019050919050565b60006127cc602683612dd5565b91506127d7826131aa565b604082019050919050565b60006127ef601c83612dd5565b91506127fa826131f9565b602082019050919050565b6000612812602483612dd5565b915061281d82613222565b604082019050919050565b6000612835601983612dd5565b915061284082613271565b602082019050919050565b6000612858602c83612dd5565b91506128638261329a565b604082019050919050565b600061287b603883612dd5565b9150612886826132e9565b604082019050919050565b600061289e602a83612dd5565b91506128a982613338565b604082019050919050565b60006128c1602983612dd5565b91506128cc82613387565b604082019050919050565b60006128e4602083612dd5565b91506128ef826133d6565b602082019050919050565b6000612907602c83612dd5565b9150612912826133ff565b604082019050919050565b600061292a602083612dd5565b91506129358261344e565b602082019050919050565b600061294d602983612dd5565b915061295882613477565b604082019050919050565b6000612970602f83612dd5565b915061297b826134c6565b604082019050919050565b6000612993602183612dd5565b915061299e82613515565b604082019050919050565b60006129b6603183612dd5565b91506129c182613564565b604082019050919050565b60006129d9602c83612dd5565b91506129e4826135b3565b604082019050919050565b6129f881612f16565b82525050565b6000612a0a8285612748565b9150612a168284612748565b91508190509392505050565b6000602082019050612a3760008301846126b8565b92915050565b6000606082019050612a5260008301866126b8565b612a5f60208301856126b8565b612a6c60408301846129ef565b949350505050565b6000608082019050612a8960008301876126b8565b612a9660208301866126b8565b612aa360408301856129ef565b8181036060830152612ab581846126d6565b905095945050505050565b6000602082019050612ad560008301846126c7565b92915050565b60006020820190508181036000830152612af5818461270f565b905092915050565b60006020820190508181036000830152612b1681612779565b9050919050565b60006020820190508181036000830152612b368161279c565b9050919050565b60006020820190508181036000830152612b56816127bf565b9050919050565b60006020820190508181036000830152612b76816127e2565b9050919050565b60006020820190508181036000830152612b9681612805565b9050919050565b60006020820190508181036000830152612bb681612828565b9050919050565b60006020820190508181036000830152612bd68161284b565b9050919050565b60006020820190508181036000830152612bf68161286e565b9050919050565b60006020820190508181036000830152612c1681612891565b9050919050565b60006020820190508181036000830152612c36816128b4565b9050919050565b60006020820190508181036000830152612c56816128d7565b9050919050565b60006020820190508181036000830152612c76816128fa565b9050919050565b60006020820190508181036000830152612c968161291d565b9050919050565b60006020820190508181036000830152612cb681612940565b9050919050565b60006020820190508181036000830152612cd681612963565b9050919050565b60006020820190508181036000830152612cf681612986565b9050919050565b60006020820190508181036000830152612d16816129a9565b9050919050565b60006020820190508181036000830152612d36816129cc565b9050919050565b6000602082019050612d5260008301846129ef565b92915050565b6000612d62612d73565b9050612d6e8282612f94565b919050565b6000604051905090565b600067ffffffffffffffff821115612d9857612d976130cc565b5b612da1826130fb565b9050602081019050919050565b600081519050919050565b600081519050919050565b600082825260208201905092915050565b600082825260208201905092915050565b600081905092915050565b6000612dfc82612f16565b9150612e0783612f16565b9250827fffffffffffffffffffffffffffffffffffffffffffffffffffffffffffffffff03821115612e3c57612e3b61303f565b5b828201905092915050565b6000612e5282612f16565b9150612e5d83612f16565b925082612e6d57612e6c61306e565b5b828204905092915050565b6000612e8382612f16565b9150612e8e83612f16565b925082821015612ea157612ea061303f565b5b828203905092915050565b6000612eb782612ef6565b9050919050565b60008115159050919050565b60007fffffffff0000000000000000000000000000000000000000000000000000000082169050919050565b600073ffffffffffffffffffffffffffffffffffffffff82169050919050565b6000819050919050565b82818337600083830152505050565b60005b83811015612f4d578082015181840152602081019050612f32565b83811115612f5c576000848401525b50505050565b60006002820490506001821680612f7a57607f821691505b60208210811415612f8e57612f8d61309d565b5b50919050565b612f9d826130fb565b810181811067ffffffffffffffff82111715612fbc57612fbb6130cc565b5b80604052505050565b6000612fd082612f16565b91507fffffffffffffffffffffffffffffffffffffffffffffffffffffffffffffffff8214156130035761300261303f565b5b600182019050919050565b600061301982612f16565b915061302483612f16565b9250826130345761303361306e565b5b828206905092915050565b7f4e487b7100000000000000000000000000000000000000000000000000000000600052601160045260246000fd5b7f4e487b7100000000000000000000000000000000000000000000000000000000600052601260045260246000fd5b7f4e487b7100000000000000000000000000000000000000000000000000000000600052602260045260246000fd5b7f4e487b7100000000000000000000000000000000000000000000000000000000600052604160045260246000fd5b6000601f19601f8301169050919050565b7f455243373231456e756d657261626c653a206f776e657220696e646578206f7560008201527f74206f6620626f756e6473000000000000000000000000000000000000000000602082015250565b7f4552433732313a207472616e7366657220746f206e6f6e20455243373231526560008201527f63656976657220696d706c656d656e7465720000000000000000000000000000602082015250565b7f4f776e61626c653a206e6577206f776e657220697320746865207a65726f206160008201527f6464726573730000000000000000000000000000000000000000000000000000602082015250565b7f4552433732313a20746f6b656e20616c7265616479206d696e74656400000000600082015250565b7f4552433732313a207472616e7366657220746f20746865207a65726f2061646460008201527f7265737300000000000000000000000000000000000000000000000000000000602082015250565b7f4552433732313a20617070726f766520746f2063616c6c657200000000000000600082015250565b7f4552433732313a206f70657261746f7220717565727920666f72206e6f6e657860008201527f697374656e7420746f6b656e0000000000000000000000000000000000000000602082015250565b7f4552433732313a20617070726f76652063616c6c6572206973206e6f74206f7760008201527f6e6572206e6f7220617070726f76656420666f7220616c6c0000000000000000602082015250565b7f4552433732313a2062616c616e636520717565727920666f7220746865207a6560008201527f726f206164647265737300000000000000000000000000000000000000000000602082015250565b7f4552433732313a206f776e657220717565727920666f72206e6f6e657869737460008201527f656e7420746f6b656e0000000000000000000000000000000000000000000000602082015250565b7f4552433732313a206d696e7420746f20746865207a65726f2061646472657373600082015250565b7f4552433732313a20617070726f76656420717565727920666f72206e6f6e657860008201527f697374656e7420746f6b656e0000000000000000000000000000000000000000602082015250565b7f4f776e61626c653a2063616c6c6572206973206e6f7420746865206f776e6572600082015250565b7f4552433732313a207472616e73666572206f6620746f6b656e2074686174206960008201527f73206e6f74206f776e0000000000000000000000000000000000000000000000602082015250565b7f4552433732314d657461646174613a2055524920717565727920666f72206e6f60008201527f6e6578697374656e7420746f6b656e0000000000000000000000000000000000602082015250565b7f4552433732313a20617070726f76616c20746f2063757272656e74206f776e6560008201527f7200000000000000000000000000000000000000000000000000000000000000602082015250565b7f4552433732313a207472616e736665722063616c6c6572206973206e6f74206f60008201527f776e6572206e6f7220617070726f766564000000000000000000000000000000602082015250565b7f455243373231456e756d657261626c653a20676c6f62616c20696e646578206f60008201527f7574206f6620626f756e64730000000000000000000000000000000000000000602082015250565b61360b81612eac565b811461361657600080fd5b50565b61362281612ebe565b811461362d57600080fd5b50565b61363981612eca565b811461364457600080fd5b50565b61365081612f16565b811461365b57600080fd5b5056fea2646970667358221220779d432eeee298fc949404dec0d632491c1c52f6deee67056f1b82e8d564f10f64736f6c63430008020033",
  "linkReferences": {},
  "deployedLinkReferences": {}
}