{
  "_format": "hh-sol-artifact-1",
  "contractName": "Quotes",
  "sourceName": "contracts/Quotes.sol",
  "abi": [
    {
      "inputs": [],
      "stateMutability": "nonpayable",
      "type": "constructor"
    },
    {
      "anonymous": false,
      "inputs": [
        {
          "indexed": true,
          "internalType": "address",
          "name": "owner",
          "type": "address"
        },
        {
          "indexed": true,
          "internalType": "address",
          "name": "approved",
          "type": "address"
        },
        {
          "indexed": true,
          "internalType": "uint256",
          "name": "tokenId",
          "type": "uint256"
        }
      ],
      "name": "Approval",
      "type": "event"
    },
    {
      "anonymous": false,
      "inputs": [
        {
          "indexed": true,
          "internalType": "address",
          "name": "owner",
          "type": "address"
        },
        {
          "indexed": true,
          "internalType": "address",
          "name": "operator",
          "type": "address"
        },
        {
          "indexed": false,
          "internalType": "bool",
          "name": "approved",
          "type": "bool"
        }
      ],
      "name": "ApprovalForAll",
      "type": "event"
    },
    {
      "anonymous": false,
      "inputs": [
        {
          "indexed": true,
          "internalType": "address",
          "name": "previousOwner",
          "type": "address"
        },
        {
          "indexed": true,
          "internalType": "address",
          "name": "newOwner",
          "type": "address"
        }
      ],
      "name": "OwnershipTransferred",
      "type": "event"
    },
    {
      "anonymous": false,
      "inputs": [
        {
          "indexed": true,
          "internalType": "address",
          "name": "from",
          "type": "address"
        },
        {
          "indexed": true,
          "internalType": "address",
          "name": "to",
          "type": "address"
        },
        {
          "indexed": true,
          "internalType": "uint256",
          "name": "tokenId",
          "type": "uint256"
        }
      ],
      "name": "Transfer",
      "type": "event"
    },
    {
      "inputs": [
        {
          "internalType": "address",
          "name": "to",
          "type": "address"
        },
        {
          "internalType": "uint256",
          "name": "tokenId",
          "type": "uint256"
        }
      ],
      "name": "approve",
      "outputs": [],
      "stateMutability": "nonpayable",
      "type": "function"
    },
    {
      "inputs": [
        {
          "internalType": "address",
          "name": "owner",
          "type": "address"
        }
      ],
      "name": "balanceOf",
      "outputs": [
        {
          "internalType": "uint256",
          "name": "",
          "type": "uint256"
        }
      ],
      "stateMutability": "view",
      "type": "function"
    },
    {
      "inputs": [
        {
          "internalType": "uint256",
          "name": "tokenId",
          "type": "uint256"
        }
      ],
      "name": "getApproved",
      "outputs": [
        {
          "internalType": "address",
          "name": "",
          "type": "address"
        }
      ],
      "stateMutability": "view",
      "type": "function"
    },
    {
      "inputs": [
        {
          "internalType": "address",
          "name": "owner",
          "type": "address"
        },
        {
          "internalType": "address",
          "name": "operator",
          "type": "address"
        }
      ],
      "name": "isApprovedForAll",
      "outputs": [
        {
          "internalType": "bool",
          "name": "",
          "type": "bool"
        }
      ],
      "stateMutability": "view",
      "type": "function"
    },
    {
      "inputs": [],
      "name": "name",
      "outputs": [
        {
          "internalType": "string",
          "name": "",
          "type": "string"
        }
      ],
      "stateMutability": "view",
      "type": "function"
    },
    {
      "inputs": [],
      "name": "owner",
      "outputs": [
        {
          "internalType": "address",
          "name": "",
          "type": "address"
        }
      ],
      "stateMutability": "view",
      "type": "function"
    },
    {
      "inputs": [
        {
          "internalType": "uint256",
          "name": "tokenId",
          "type": "uint256"
        }
      ],
      "name": "ownerOf",
      "outputs": [
        {
          "internalType": "address",
          "name": "",
          "type": "address"
        }
      ],
      "stateMutability": "view",
      "type": "function"
    },
    {
      "inputs": [],
      "name": "renounceOwnership",
      "outputs": [],
      "stateMutability": "nonpayable",
      "type": "function"
    },
    {
      "inputs": [
        {
          "internalType": "address",
          "name": "to",
          "type": "address"
        },
        {
          "internalType": "uint256",
          "name": "tokenId",
          "type": "uint256"
        }
      ],
      "name": "safeMint",
      "outputs": [],
      "stateMutability": "nonpayable",
      "type": "function"
    },
    {
      "inputs": [
        {
          "internalType": "address",
          "name": "from",
          "type": "address"
        },
        {
          "internalType": "address",
          "name": "to",
          "type": "address"
        },
        {
          "internalType": "uint256",
          "name": "tokenId",
          "type": "uint256"
        }
      ],
      "name": "safeTransferFrom",
      "outputs": [],
      "stateMutability": "nonpayable",
      "type": "function"
    },
    {
      "inputs": [
        {
          "internalType": "address",
          "name": "from",
          "type": "address"
        },
        {
          "internalType": "address",
          "name": "to",
          "type": "address"
        },
        {
          "internalType": "uint256",
          "name": "tokenId",
          "type": "uint256"
        },
        {
          "internalType": "bytes",
          "name": "_data",
          "type": "bytes"
        }
      ],
      "name": "safeTransferFrom",
      "outputs": [],
      "stateMutability": "nonpayable",
      "type": "function"
    },
    {
      "inputs": [
        {
          "internalType": "address",
          "name": "operator",
          "type": "address"
        },
        {
          "internalType": "bool",
          "name": "approved",
          "type": "bool"
        }
      ],
      "name": "setApprovalForAll",
      "outputs": [],
      "stateMutability": "nonpayable",
      "type": "function"
    },
    {
      "inputs": [
        {
          "internalType": "bytes4",
          "name": "interfaceId",
          "type": "bytes4"
        }
      ],
      "name": "supportsInterface",
      "outputs": [
        {
          "internalType": "bool",
          "name": "",
          "type": "bool"
        }
      ],
      "stateMutability": "view",
      "type": "function"
    },
    {
      "inputs": [],
      "name": "symbol",
      "outputs": [
        {
          "internalType": "string",
          "name": "",
          "type": "string"
        }
      ],
      "stateMutability": "view",
      "type": "function"
    },
    {
      "inputs": [
        {
          "internalType": "uint256",
          "name": "index",
          "type": "uint256"
        }
      ],
      "name": "tokenByIndex",
      "outputs": [
        {
          "internalType": "uint256",
          "name": "",
          "type": "uint256"
        }
      ],
      "stateMutability": "view",
      "type": "function"
    },
    {
      "inputs": [
        {
          "internalType": "address",
          "name": "owner",
          "type": "address"
        },
        {
          "internalType": "uint256",
          "name": "index",
          "type": "uint256"
        }
      ],
      "name": "tokenOfOwnerByIndex",
      "outputs": [
        {
          "internalType": "uint256",
          "name": "",
          "type": "uint256"
        }
      ],
      "stateMutability": "view",
      "type": "function"
    },
    {
      "inputs": [
        {
          "internalType": "uint256",
          "name": "tokenId",
          "type": "uint256"
        }
      ],
      "name": "tokenURI",
      "outputs": [
        {
          "internalType": "string",
          "name": "",
          "type": "string"
        }
      ],
      "stateMutability": "view",
      "type": "function"
    },
    {
      "inputs": [],
      "name": "totalSupply",
      "outputs": [
        {
          "internalType": "uint256",
          "name": "",
          "type": "uint256"
        }
      ],
      "stateMutability": "view",
      "type": "function"
    },
    {
      "inputs": [
        {
          "internalType": "address",
          "name": "from",
          "type": "address"
        },
        {
          "internalType": "address",
          "name": "to",
          "type": "address"
        },
        {
          "internalType": "uint256",
          "name": "tokenId",
          "type": "uint256"
        }
      ],
      "name": "transferFrom",
      "outputs": [],
      "stateMutability": "nonpayable",
      "type": "function"
    },
    {
      "inputs": [
        {
          "internalType": "address",
          "name": "newOwner",
          "type": "address"
        }
      ],
      "name": "transferOwnership",
      "outputs": [],
      "stateMutability": "nonpayable",
      "type": "function"
    }
  ],
  "bytecode": "0x60806040523480156200001157600080fd5b506040518060400160405280600781526020017f4d79546f6b656e000000000000000000000000000000000000000000000000008152506040518060400160405280600381526020017f4d544b0000000000000000000000000000000000000000000000000000000000815250816000908051906020019062000096929190620001a6565b508060019080519060200190620000af929190620001a6565b505050620000d2620000c6620000d860201b60201c565b620000e060201b60201c565b620002bb565b600033905090565b6000600a60009054906101000a900473ffffffffffffffffffffffffffffffffffffffff16905081600a60006101000a81548173ffffffffffffffffffffffffffffffffffffffff021916908373ffffffffffffffffffffffffffffffffffffffff1602179055508173ffffffffffffffffffffffffffffffffffffffff168173ffffffffffffffffffffffffffffffffffffffff167f8be0079c531659141344cd1fd0a4f28419497f9722a3daafe3b4186f6b6457e060405160405180910390a35050565b828054620001b49062000256565b90600052602060002090601f016020900481019282620001d8576000855562000224565b82601f10620001f357805160ff191683800117855562000224565b8280016001018555821562000224579182015b828111156200022357825182559160200191906001019062000206565b5b50905062000233919062000237565b5090565b5b808211156200025257600081600090555060010162000238565b5090565b600060028204905060018216806200026f57607f821691505b602082108114156200028657620002856200028c565b5b50919050565b7f4e487b7100000000000000000000000000000000000000000000000000000000600052602260045260246000fd5b61338e80620002cb6000396000f3fe608060405234801561001057600080fd5b506004361061012c5760003560e01c806370a08231116100ad578063a22cb46511610071578063a22cb46514610343578063b88d4fde1461035f578063c87b56dd1461037b578063e985e9c5146103ab578063f2fde38b146103db5761012c565b806370a08231146102b1578063715018a6146102e15780638da5cb5b146102eb57806395d89b4114610309578063a1448194146103275761012c565b806323b872dd116100f457806323b872dd146101e95780632f745c591461020557806342842e0e146102355780634f6ccce7146102515780636352211e146102815761012c565b806301ffc9a71461013157806306fdde0314610161578063081812fc1461017f578063095ea7b3146101af57806318160ddd146101cb575b600080fd5b61014b6004803603810190610146919061236e565b6103f7565b60405161015891906127ba565b60405180910390f35b610169610409565b60405161017691906127d5565b60405180910390f35b610199600480360381019061019491906123c0565b61049b565b6040516101a69190612753565b60405180910390f35b6101c960048036038101906101c49190612332565b610520565b005b6101d3610638565b6040516101e09190612a37565b60405180910390f35b61020360048036038101906101fe919061222c565b610645565b005b61021f600480360381019061021a9190612332565b6106a5565b60405161022c9190612a37565b60405180910390f35b61024f600480360381019061024a919061222c565b61074a565b005b61026b600480360381019061026691906123c0565b61076a565b6040516102789190612a37565b60405180910390f35b61029b600480360381019061029691906123c0565b610801565b6040516102a89190612753565b60405180910390f35b6102cb60048036038101906102c691906121c7565b6108b3565b6040516102d89190612a37565b60405180910390f35b6102e961096b565b005b6102f36109f3565b6040516103009190612753565b60405180910390f35b610311610a1d565b60405161031e91906127d5565b60405180910390f35b610341600480360381019061033c9190612332565b610aaf565b005b61035d600480360381019061035891906122f6565b610b39565b005b6103796004803603810190610374919061227b565b610b4f565b005b610395600480360381019061039091906123c0565b610bb1565b6040516103a291906127d5565b60405180910390f35b6103c560048036038101906103c091906121f0565b610c58565b6040516103d291906127ba565b60405180910390f35b6103f560048036038101906103f091906121c7565b610cec565b005b600061040282610de4565b9050919050565b60606000805461041890612c5c565b80601f016020809104026020016040519081016040528092919081815260200182805461044490612c5c565b80156104915780601f1061046657610100808354040283529160200191610491565b820191906000526020600020905b81548152906001019060200180831161047457829003601f168201915b5050505050905090565b60006104a682610e5e565b6104e5576040517f08c379a00000000000000000000000000000000000000000000000000000000081526004016104dc90612957565b60405180910390fd5b6004600083815260200190815260200160002060009054906101000a900473ffffffffffffffffffffffffffffffffffffffff169050919050565b600061052b82610801565b90508073ffffffffffffffffffffffffffffffffffffffff168373ffffffffffffffffffffffffffffffffffffffff16141561059c576040517f08c379a0000000000000000000000000000000000000000000000000000000008152600401610593906129d7565b60405180910390fd5b8073ffffffffffffffffffffffffffffffffffffffff166105bb610eca565b73ffffffffffffffffffffffffffffffffffffffff1614806105ea57506105e9816105e4610eca565b610c58565b5b610629576040517f08c379a0000000000000000000000000000000000000000000000000000000008152600401610620906128d7565b60405180910390fd5b6106338383610ed2565b505050565b6000600880549050905090565b610656610650610eca565b82610f8b565b610695576040517f08c379a000000000000000000000000000000000000000000000000000000000815260040161068c906129f7565b60405180910390fd5b6106a0838383611069565b505050565b60006106b0836108b3565b82106106f1576040517f08c379a00000000000000000000000000000000000000000000000000000000081526004016106e8906127f7565b60405180910390fd5b600660008473ffffffffffffffffffffffffffffffffffffffff1673ffffffffffffffffffffffffffffffffffffffff168152602001908152602001600020600083815260200190815260200160002054905092915050565b61076583838360405180602001604052806000815250610b4f565b505050565b6000610774610638565b82106107b5576040517f08c379a00000000000000000000000000000000000000000000000000000000081526004016107ac90612a17565b60405180910390fd5b600882815481106107ef577f4e487b7100000000000000000000000000000000000000000000000000000000600052603260045260246000fd5b90600052602060002001549050919050565b6000806002600084815260200190815260200160002060009054906101000a900473ffffffffffffffffffffffffffffffffffffffff169050600073ffffffffffffffffffffffffffffffffffffffff168173ffffffffffffffffffffffffffffffffffffffff1614156108aa576040517f08c379a00000000000000000000000000000000000000000000000000000000081526004016108a190612917565b60405180910390fd5b80915050919050565b60008073ffffffffffffffffffffffffffffffffffffffff168273ffffffffffffffffffffffffffffffffffffffff161415610924576040517f08c379a000000000000000000000000000000000000000000000000000000000815260040161091b906128f7565b60405180910390fd5b600360008373ffffffffffffffffffffffffffffffffffffffff1673ffffffffffffffffffffffffffffffffffffffff168152602001908152602001600020549050919050565b610973610eca565b73ffffffffffffffffffffffffffffffffffffffff166109916109f3565b73ffffffffffffffffffffffffffffffffffffffff16146109e7576040517f08c379a00000000000000000000000000000000000000000000000000000000081526004016109de90612977565b60405180910390fd5b6109f160006112c5565b565b6000600a60009054906101000a900473ffffffffffffffffffffffffffffffffffffffff16905090565b606060018054610a2c90612c5c565b80601f0160208091040260200160405190810160405280929190818152602001828054610a5890612c5c565b8015610aa55780601f10610a7a57610100808354040283529160200191610aa5565b820191906000526020600020905b815481529060010190602001808311610a8857829003601f168201915b5050505050905090565b610ab7610eca565b73ffffffffffffffffffffffffffffffffffffffff16610ad56109f3565b73ffffffffffffffffffffffffffffffffffffffff1614610b2b576040517f08c379a0000000000000000000000000000000000000000000000000000000008152600401610b2290612977565b60405180910390fd5b610b35828261138b565b5050565b610b4b610b44610eca565b83836113a9565b5050565b610b60610b5a610eca565b83610f8b565b610b9f576040517f08c379a0000000000000000000000000000000000000000000000000000000008152600401610b96906129f7565b60405180910390fd5b610bab84848484611516565b50505050565b6060610bbc82610e5e565b610bfb576040517f08c379a0000000000000000000000000000000000000000000000000000000008152600401610bf2906129b7565b60405180910390fd5b6000610c05611572565b90506000815111610c255760405180602001604052806000815250610c50565b80610c2f84611589565b604051602001610c4092919061272f565b6040516020818303038152906040525b915050919050565b6000600560008473ffffffffffffffffffffffffffffffffffffffff1673ffffffffffffffffffffffffffffffffffffffff16815260200190815260200160002060008373ffffffffffffffffffffffffffffffffffffffff1673ffffffffffffffffffffffffffffffffffffffff16815260200190815260200160002060009054906101000a900460ff16905092915050565b610cf4610eca565b73ffffffffffffffffffffffffffffffffffffffff16610d126109f3565b73ffffffffffffffffffffffffffffffffffffffff1614610d68576040517f08c379a0000000000000000000000000000000000000000000000000000000008152600401610d5f90612977565b60405180910390fd5b600073ffffffffffffffffffffffffffffffffffffffff168173ffffffffffffffffffffffffffffffffffffffff161415610dd8576040517f08c379a0000000000000000000000000000000000000000000000000000000008152600401610dcf90612837565b60405180910390fd5b610de1816112c5565b50565b60007f780e9d63000000000000000000000000000000000000000000000000000000007bffffffffffffffffffffffffffffffffffffffffffffffffffffffff1916827bffffffffffffffffffffffffffffffffffffffffffffffffffffffff19161480610e575750610e5682611736565b5b9050919050565b60008073ffffffffffffffffffffffffffffffffffffffff166002600084815260200190815260200160002060009054906101000a900473ffffffffffffffffffffffffffffffffffffffff1673ffffffffffffffffffffffffffffffffffffffff1614159050919050565b600033905090565b816004600083815260200190815260200160002060006101000a81548173ffffffffffffffffffffffffffffffffffffffff021916908373ffffffffffffffffffffffffffffffffffffffff160217905550808273ffffffffffffffffffffffffffffffffffffffff16610f4583610801565b73ffffffffffffffffffffffffffffffffffffffff167f8c5be1e5ebec7d5bd14f71427d1e84f3dd0314c0f7b2291e5b200ac8c7c3b92560405160405180910390a45050565b6000610f9682610e5e565b610fd5576040517f08c379a0000000000000000000000000000000000000000000000000000000008152600401610fcc906128b7565b60405180910390fd5b6000610fe083610801565b90508073ffffffffffffffffffffffffffffffffffffffff168473ffffffffffffffffffffffffffffffffffffffff16148061104f57508373ffffffffffffffffffffffffffffffffffffffff166110378461049b565b73ffffffffffffffffffffffffffffffffffffffff16145b80611060575061105f8185610c58565b5b91505092915050565b8273ffffffffffffffffffffffffffffffffffffffff1661108982610801565b73ffffffffffffffffffffffffffffffffffffffff16146110df576040517f08c379a00000000000000000000000000000000000000000000000000000000081526004016110d690612997565b60405180910390fd5b600073ffffffffffffffffffffffffffffffffffffffff168273ffffffffffffffffffffffffffffffffffffffff16141561114f576040517f08c379a000000000000000000000000000000000000000000000000000000000815260040161114690612877565b60405180910390fd5b61115a838383611818565b611165600082610ed2565b6001600360008573ffffffffffffffffffffffffffffffffffffffff1673ffffffffffffffffffffffffffffffffffffffff16815260200190815260200160002060008282546111b59190612b72565b925050819055506001600360008473ffffffffffffffffffffffffffffffffffffffff1673ffffffffffffffffffffffffffffffffffffffff168152602001908152602001600020600082825461120c9190612aeb565b92505081905550816002600083815260200190815260200160002060006101000a81548173ffffffffffffffffffffffffffffffffffffffff021916908373ffffffffffffffffffffffffffffffffffffffff160217905550808273ffffffffffffffffffffffffffffffffffffffff168473ffffffffffffffffffffffffffffffffffffffff167fddf252ad1be2c89b69c2b068fc378daa952ba7f163c4a11628f55a4df523b3ef60405160405180910390a4505050565b6000600a60009054906101000a900473ffffffffffffffffffffffffffffffffffffffff16905081600a60006101000a81548173ffffffffffffffffffffffffffffffffffffffff021916908373ffffffffffffffffffffffffffffffffffffffff1602179055508173ffffffffffffffffffffffffffffffffffffffff168173ffffffffffffffffffffffffffffffffffffffff167f8be0079c531659141344cd1fd0a4f28419497f9722a3daafe3b4186f6b6457e060405160405180910390a35050565b6113a5828260405180602001604052806000815250611828565b5050565b8173ffffffffffffffffffffffffffffffffffffffff168373ffffffffffffffffffffffffffffffffffffffff161415611418576040517f08c379a000000000000000000000000000000000000000000000000000000000815260040161140f90612897565b60405180910390fd5b80600560008573ffffffffffffffffffffffffffffffffffffffff1673ffffffffffffffffffffffffffffffffffffffff16815260200190815260200160002060008473ffffffffffffffffffffffffffffffffffffffff1673ffffffffffffffffffffffffffffffffffffffff16815260200190815260200160002060006101000a81548160ff0219169083151502179055508173ffffffffffffffffffffffffffffffffffffffff168373ffffffffffffffffffffffffffffffffffffffff167f17307eab39ab6107e8899845ad3d59bd9653f200f220920489ca2b5937696c318360405161150991906127ba565b60405180910390a3505050565b611521848484611069565b61152d84848484611883565b61156c576040517f08c379a000000000000000000000000000000000000000000000000000000000815260040161156390612817565b60405180910390fd5b50505050565b606060405180602001604052806000815250905090565b606060008214156115d1576040518060400160405280600181526020017f30000000000000000000000000000000000000000000000000000000000000008152509050611731565b600082905060005b600082146116035780806115ec90612cbf565b915050600a826115fc9190612b41565b91506115d9565b60008167ffffffffffffffff811115611645577f4e487b7100000000000000000000000000000000000000000000000000000000600052604160045260246000fd5b6040519080825280601f01601f1916602001820160405280156116775781602001600182028036833780820191505090505b5090505b6000851461172a576001826116909190612b72565b9150600a8561169f9190612d08565b60306116ab9190612aeb565b60f81b8183815181106116e7577f4e487b7100000000000000000000000000000000000000000000000000000000600052603260045260246000fd5b60200101907effffffffffffffffffffffffffffffffffffffffffffffffffffffffffffff1916908160001a905350600a856117239190612b41565b945061167b565b8093505050505b919050565b60007f80ac58cd000000000000000000000000000000000000000000000000000000007bffffffffffffffffffffffffffffffffffffffffffffffffffffffff1916827bffffffffffffffffffffffffffffffffffffffffffffffffffffffff1916148061180157507f5b5e139f000000000000000000000000000000000000000000000000000000007bffffffffffffffffffffffffffffffffffffffffffffffffffffffff1916827bffffffffffffffffffffffffffffffffffffffffffffffffffffffff1916145b80611811575061181082611a1a565b5b9050919050565b611823838383611a84565b505050565b6118328383611b98565b61183f6000848484611883565b61187e576040517f08c379a000000000000000000000000000000000000000000000000000000000815260040161187590612817565b60405180910390fd5b505050565b60006118a48473ffffffffffffffffffffffffffffffffffffffff16611d66565b15611a0d578373ffffffffffffffffffffffffffffffffffffffff1663150b7a026118cd610eca565b8786866040518563ffffffff1660e01b81526004016118ef949392919061276e565b602060405180830381600087803b15801561190957600080fd5b505af192505050801561193a57506040513d601f19601f820116820180604052508101906119379190612397565b60015b6119bd573d806000811461196a576040519150601f19603f3d011682016040523d82523d6000602084013e61196f565b606091505b506000815114156119b5576040517f08c379a00000000000000000000000000000000000000000000000000000000081526004016119ac90612817565b60405180910390fd5b805181602001fd5b63150b7a0260e01b7bffffffffffffffffffffffffffffffffffffffffffffffffffffffff1916817bffffffffffffffffffffffffffffffffffffffffffffffffffffffff191614915050611a12565b600190505b949350505050565b60007f01ffc9a7000000000000000000000000000000000000000000000000000000007bffffffffffffffffffffffffffffffffffffffffffffffffffffffff1916827bffffffffffffffffffffffffffffffffffffffffffffffffffffffff1916149050919050565b611a8f838383611d79565b600073ffffffffffffffffffffffffffffffffffffffff168373ffffffffffffffffffffffffffffffffffffffff161415611ad257611acd81611d7e565b611b11565b8173ffffffffffffffffffffffffffffffffffffffff168373ffffffffffffffffffffffffffffffffffffffff1614611b1057611b0f8382611dc7565b5b5b600073ffffffffffffffffffffffffffffffffffffffff168273ffffffffffffffffffffffffffffffffffffffff161415611b5457611b4f81611f34565b611b93565b8273ffffffffffffffffffffffffffffffffffffffff168273ffffffffffffffffffffffffffffffffffffffff1614611b9257611b918282612077565b5b5b505050565b600073ffffffffffffffffffffffffffffffffffffffff168273ffffffffffffffffffffffffffffffffffffffff161415611c08576040517f08c379a0000000000000000000000000000000000000000000000000000000008152600401611bff90612937565b60405180910390fd5b611c1181610e5e565b15611c51576040517f08c379a0000000000000000000000000000000000000000000000000000000008152600401611c4890612857565b60405180910390fd5b611c5d60008383611818565b6001600360008473ffffffffffffffffffffffffffffffffffffffff1673ffffffffffffffffffffffffffffffffffffffff1681526020019081526020016000206000828254611cad9190612aeb565b92505081905550816002600083815260200190815260200160002060006101000a81548173ffffffffffffffffffffffffffffffffffffffff021916908373ffffffffffffffffffffffffffffffffffffffff160217905550808273ffffffffffffffffffffffffffffffffffffffff16600073ffffffffffffffffffffffffffffffffffffffff167fddf252ad1be2c89b69c2b068fc378daa952ba7f163c4a11628f55a4df523b3ef60405160405180910390a45050565b600080823b905060008111915050919050565b505050565b6008805490506009600083815260200190815260200160002081905550600881908060018154018082558091505060019003906000526020600020016000909190919091505550565b60006001611dd4846108b3565b611dde9190612b72565b9050600060076000848152602001908152602001600020549050818114611ec3576000600660008673ffffffffffffffffffffffffffffffffffffffff1673ffffffffffffffffffffffffffffffffffffffff168152602001908152602001600020600084815260200190815260200160002054905080600660008773ffffffffffffffffffffffffffffffffffffffff1673ffffffffffffffffffffffffffffffffffffffff168152602001908152602001600020600084815260200190815260200160002081905550816007600083815260200190815260200160002081905550505b6007600084815260200190815260200160002060009055600660008573ffffffffffffffffffffffffffffffffffffffff1673ffffffffffffffffffffffffffffffffffffffff16815260200190815260200160002060008381526020019081526020016000206000905550505050565b60006001600880549050611f489190612b72565b9050600060096000848152602001908152602001600020549050600060088381548110611f9e577f4e487b7100000000000000000000000000000000000000000000000000000000600052603260045260246000fd5b906000526020600020015490508060088381548110611fe6577f4e487b7100000000000000000000000000000000000000000000000000000000600052603260045260246000fd5b90600052602060002001819055508160096000838152602001908152602001600020819055506009600085815260200190815260200160002060009055600880548061205b577f4e487b7100000000000000000000000000000000000000000000000000000000600052603160045260246000fd5b6001900381819060005260206000200160009055905550505050565b6000612082836108b3565b905081600660008573ffffffffffffffffffffffffffffffffffffffff1673ffffffffffffffffffffffffffffffffffffffff168152602001908152602001600020600083815260200190815260200160002081905550806007600084815260200190815260200160002081905550505050565b600061210961210484612a77565b612a52565b90508281526020810184848401111561212157600080fd5b61212c848285612c1a565b509392505050565b600081359050612143816132fc565b92915050565b60008135905061215881613313565b92915050565b60008135905061216d8161332a565b92915050565b6000815190506121828161332a565b92915050565b600082601f83011261219957600080fd5b81356121a98482602086016120f6565b91505092915050565b6000813590506121c181613341565b92915050565b6000602082840312156121d957600080fd5b60006121e784828501612134565b91505092915050565b6000806040838503121561220357600080fd5b600061221185828601612134565b925050602061222285828601612134565b9150509250929050565b60008060006060848603121561224157600080fd5b600061224f86828701612134565b935050602061226086828701612134565b9250506040612271868287016121b2565b9150509250925092565b6000806000806080858703121561229157600080fd5b600061229f87828801612134565b94505060206122b087828801612134565b93505060406122c1878288016121b2565b925050606085013567ffffffffffffffff8111156122de57600080fd5b6122ea87828801612188565b91505092959194509250565b6000806040838503121561230957600080fd5b600061231785828601612134565b925050602061232885828601612149565b9150509250929050565b6000806040838503121561234557600080fd5b600061235385828601612134565b9250506020612364858286016121b2565b9150509250929050565b60006020828403121561238057600080fd5b600061238e8482850161215e565b91505092915050565b6000602082840312156123a957600080fd5b60006123b784828501612173565b91505092915050565b6000602082840312156123d257600080fd5b60006123e0848285016121b2565b91505092915050565b6123f281612ba6565b82525050565b61240181612bb8565b82525050565b600061241282612aa8565b61241c8185612abe565b935061242c818560208601612c29565b61243581612df5565b840191505092915050565b600061244b82612ab3565b6124558185612acf565b9350612465818560208601612c29565b61246e81612df5565b840191505092915050565b600061248482612ab3565b61248e8185612ae0565b935061249e818560208601612c29565b80840191505092915050565b60006124b7602b83612acf565b91506124c282612e06565b604082019050919050565b60006124da603283612acf565b91506124e582612e55565b604082019050919050565b60006124fd602683612acf565b915061250882612ea4565b604082019050919050565b6000612520601c83612acf565b915061252b82612ef3565b602082019050919050565b6000612543602483612acf565b915061254e82612f1c565b604082019050919050565b6000612566601983612acf565b915061257182612f6b565b602082019050919050565b6000612589602c83612acf565b915061259482612f94565b604082019050919050565b60006125ac603883612acf565b91506125b782612fe3565b604082019050919050565b60006125cf602a83612acf565b91506125da82613032565b604082019050919050565b60006125f2602983612acf565b91506125fd82613081565b604082019050919050565b6000612615602083612acf565b9150612620826130d0565b602082019050919050565b6000612638602c83612acf565b9150612643826130f9565b604082019050919050565b600061265b602083612acf565b915061266682613148565b602082019050919050565b600061267e602983612acf565b915061268982613171565b604082019050919050565b60006126a1602f83612acf565b91506126ac826131c0565b604082019050919050565b60006126c4602183612acf565b91506126cf8261320f565b604082019050919050565b60006126e7603183612acf565b91506126f28261325e565b604082019050919050565b600061270a602c83612acf565b9150612715826132ad565b604082019050919050565b61272981612c10565b82525050565b600061273b8285612479565b91506127478284612479565b91508190509392505050565b600060208201905061276860008301846123e9565b92915050565b600060808201905061278360008301876123e9565b61279060208301866123e9565b61279d6040830185612720565b81810360608301526127af8184612407565b905095945050505050565b60006020820190506127cf60008301846123f8565b92915050565b600060208201905081810360008301526127ef8184612440565b905092915050565b60006020820190508181036000830152612810816124aa565b9050919050565b60006020820190508181036000830152612830816124cd565b9050919050565b60006020820190508181036000830152612850816124f0565b9050919050565b6000602082019050818103600083015261287081612513565b9050919050565b6000602082019050818103600083015261289081612536565b9050919050565b600060208201905081810360008301526128b081612559565b9050919050565b600060208201905081810360008301526128d08161257c565b9050919050565b600060208201905081810360008301526128f08161259f565b9050919050565b60006020820190508181036000830152612910816125c2565b9050919050565b60006020820190508181036000830152612930816125e5565b9050919050565b6000602082019050818103600083015261295081612608565b9050919050565b600060208201905081810360008301526129708161262b565b9050919050565b600060208201905081810360008301526129908161264e565b9050919050565b600060208201905081810360008301526129b081612671565b9050919050565b600060208201905081810360008301526129d081612694565b9050919050565b600060208201905081810360008301526129f0816126b7565b9050919050565b60006020820190508181036000830152612a10816126da565b9050919050565b60006020820190508181036000830152612a30816126fd565b9050919050565b6000602082019050612a4c6000830184612720565b92915050565b6000612a5c612a6d565b9050612a688282612c8e565b919050565b6000604051905090565b600067ffffffffffffffff821115612a9257612a91612dc6565b5b612a9b82612df5565b9050602081019050919050565b600081519050919050565b600081519050919050565b600082825260208201905092915050565b600082825260208201905092915050565b600081905092915050565b6000612af682612c10565b9150612b0183612c10565b9250827fffffffffffffffffffffffffffffffffffffffffffffffffffffffffffffffff03821115612b3657612b35612d39565b5b828201905092915050565b6000612b4c82612c10565b9150612b5783612c10565b925082612b6757612b66612d68565b5b828204905092915050565b6000612b7d82612c10565b9150612b8883612c10565b925082821015612b9b57612b9a612d39565b5b828203905092915050565b6000612bb182612bf0565b9050919050565b60008115159050919050565b60007fffffffff0000000000000000000000000000000000000000000000000000000082169050919050565b600073ffffffffffffffffffffffffffffffffffffffff82169050919050565b6000819050919050565b82818337600083830152505050565b60005b83811015612c47578082015181840152602081019050612c2c565b83811115612c56576000848401525b50505050565b60006002820490506001821680612c7457607f821691505b60208210811415612c8857612c87612d97565b5b50919050565b612c9782612df5565b810181811067ffffffffffffffff82111715612cb657612cb5612dc6565b5b80604052505050565b6000612cca82612c10565b91507fffffffffffffffffffffffffffffffffffffffffffffffffffffffffffffffff821415612cfd57612cfc612d39565b5b600182019050919050565b6000612d1382612c10565b9150612d1e83612c10565b925082612d2e57612d2d612d68565b5b828206905092915050565b7f4e487b7100000000000000000000000000000000000000000000000000000000600052601160045260246000fd5b7f4e487b7100000000000000000000000000000000000000000000000000000000600052601260045260246000fd5b7f4e487b7100000000000000000000000000000000000000000000000000000000600052602260045260246000fd5b7f4e487b7100000000000000000000000000000000000000000000000000000000600052604160045260246000fd5b6000601f19601f8301169050919050565b7f455243373231456e756d657261626c653a206f776e657220696e646578206f7560008201527f74206f6620626f756e6473000000000000000000000000000000000000000000602082015250565b7f4552433732313a207472616e7366657220746f206e6f6e20455243373231526560008201527f63656976657220696d706c656d656e7465720000000000000000000000000000602082015250565b7f4f776e61626c653a206e6577206f776e657220697320746865207a65726f206160008201527f6464726573730000000000000000000000000000000000000000000000000000602082015250565b7f4552433732313a20746f6b656e20616c7265616479206d696e74656400000000600082015250565b7f4552433732313a207472616e7366657220746f20746865207a65726f2061646460008201527f7265737300000000000000000000000000000000000000000000000000000000602082015250565b7f4552433732313a20617070726f766520746f2063616c6c657200000000000000600082015250565b7f4552433732313a206f70657261746f7220717565727920666f72206e6f6e657860008201527f697374656e7420746f6b656e0000000000000000000000000000000000000000602082015250565b7f4552433732313a20617070726f76652063616c6c6572206973206e6f74206f7760008201527f6e6572206e6f7220617070726f76656420666f7220616c6c0000000000000000602082015250565b7f4552433732313a2062616c616e636520717565727920666f7220746865207a6560008201527f726f206164647265737300000000000000000000000000000000000000000000602082015250565b7f4552433732313a206f776e657220717565727920666f72206e6f6e657869737460008201527f656e7420746f6b656e0000000000000000000000000000000000000000000000602082015250565b7f4552433732313a206d696e7420746f20746865207a65726f2061646472657373600082015250565b7f4552433732313a20617070726f76656420717565727920666f72206e6f6e657860008201527f697374656e7420746f6b656e0000000000000000000000000000000000000000602082015250565b7f4f776e61626c653a2063616c6c6572206973206e6f7420746865206f776e6572600082015250565b7f4552433732313a207472616e73666572206f6620746f6b656e2074686174206960008201527f73206e6f74206f776e0000000000000000000000000000000000000000000000602082015250565b7f4552433732314d657461646174613a2055524920717565727920666f72206e6f60008201527f6e6578697374656e7420746f6b656e0000000000000000000000000000000000602082015250565b7f4552433732313a20617070726f76616c20746f2063757272656e74206f776e6560008201527f7200000000000000000000000000000000000000000000000000000000000000602082015250565b7f4552433732313a207472616e736665722063616c6c6572206973206e6f74206f60008201527f776e6572206e6f7220617070726f766564000000000000000000000000000000602082015250565b7f455243373231456e756d657261626c653a20676c6f62616c20696e646578206f60008201527f7574206f6620626f756e64730000000000000000000000000000000000000000602082015250565b61330581612ba6565b811461331057600080fd5b50565b61331c81612bb8565b811461332757600080fd5b50565b61333381612bc4565b811461333e57600080fd5b50565b61334a81612c10565b811461335557600080fd5b5056fea264697066735822122023fbbb332c75eae9e3b29ef3551ba9c944d14108a070a469fa2652effbd6df2c64736f6c63430008020033",
  "linkReferences": {},
  "deployedLinkReferences": {}
}